{
  "_format": "hh-sol-artifact-1",
  "contractName": "ZinarLoans",
  "sourceName": "contracts/zinarLoan.sol",
  "abi": [
    {
      "inputs": [],
      "stateMutability": "payable",
      "type": "constructor"
    },
    {
      "anonymous": false,
      "inputs": [
        {
          "indexed": false,
          "internalType": "uint256",
          "name": "newAdminFee",
          "type": "uint256"
        }
      ],
      "name": "AdminFeeUpdated",
      "type": "event"
    },
    {
      "anonymous": false,
      "inputs": [
        {
          "indexed": true,
          "internalType": "address",
          "name": "owner",
          "type": "address"
        },
        {
          "indexed": true,
          "internalType": "address",
          "name": "approved",
          "type": "address"
        },
        {
          "indexed": true,
          "internalType": "uint256",
          "name": "tokenId",
          "type": "uint256"
        }
      ],
      "name": "Approval",
      "type": "event"
    },
    {
      "anonymous": false,
      "inputs": [
        {
          "indexed": true,
          "internalType": "address",
          "name": "owner",
          "type": "address"
        },
        {
          "indexed": true,
          "internalType": "address",
          "name": "operator",
          "type": "address"
        },
        {
          "indexed": false,
          "internalType": "bool",
          "name": "approved",
          "type": "bool"
        }
      ],
      "name": "ApprovalForAll",
      "type": "event"
    },
    {
      "anonymous": false,
      "inputs": [
        {
          "indexed": false,
          "internalType": "uint256",
          "name": "loanId",
          "type": "uint256"
        },
        {
          "indexed": false,
          "internalType": "address",
          "name": "borrower",
          "type": "address"
        },
        {
          "indexed": false,
          "internalType": "uint256",
          "name": "loanPrincipalAmount",
          "type": "uint256"
        },
        {
          "indexed": false,
          "internalType": "uint256",
          "name": "nftCollateralId",
          "type": "uint256"
        },
        {
          "indexed": false,
          "internalType": "uint256",
          "name": "loanMaturityDate",
          "type": "uint256"
        },
        {
          "indexed": false,
          "internalType": "uint256",
          "name": "loanLiquidationDate",
          "type": "uint256"
        },
        {
          "indexed": false,
          "internalType": "address",
          "name": "nftCollateralContract",
          "type": "address"
        }
      ],
      "name": "LoanLiquidated",
      "type": "event"
    },
    {
      "anonymous": false,
      "inputs": [
        {
          "indexed": false,
          "internalType": "uint256",
          "name": "loanId",
          "type": "uint256"
        },
        {
          "indexed": false,
          "internalType": "address",
          "name": "borrower",
          "type": "address"
        },
        {
          "indexed": false,
          "internalType": "uint256",
          "name": "loanPrincipalAmount",
          "type": "uint256"
        },
        {
          "indexed": false,
          "internalType": "uint256",
          "name": "nftCollateralId",
          "type": "uint256"
        },
        {
          "indexed": false,
          "internalType": "uint256",
          "name": "amountPaidToLender",
          "type": "uint256"
        },
        {
          "indexed": false,
          "internalType": "uint256",
          "name": "adminFee",
          "type": "uint256"
        },
        {
          "indexed": false,
          "internalType": "address",
          "name": "nftCollateralContract",
          "type": "address"
        }
      ],
      "name": "LoanRepaid",
      "type": "event"
    },
    {
      "anonymous": false,
      "inputs": [
        {
          "indexed": false,
          "internalType": "uint256",
          "name": "loanId",
          "type": "uint256"
        },
        {
          "indexed": false,
          "internalType": "address",
          "name": "borrower",
          "type": "address"
        },
        {
          "indexed": false,
          "internalType": "uint256",
          "name": "loanPrincipalAmount",
          "type": "uint256"
        },
        {
          "indexed": false,
          "internalType": "uint256",
          "name": "maximumRepaymentAmount",
          "type": "uint256"
        },
        {
          "indexed": false,
          "internalType": "uint256",
          "name": "nftCollateralId",
          "type": "uint256"
        },
        {
          "indexed": false,
          "internalType": "uint256",
          "name": "loanStartTime",
          "type": "uint256"
        },
        {
          "indexed": false,
          "internalType": "uint256",
          "name": "loanDuration",
          "type": "uint256"
        },
        {
          "indexed": false,
          "internalType": "uint256",
          "name": "loanInterestRateForDurationInBasisPoints",
          "type": "uint256"
        },
        {
          "indexed": false,
          "internalType": "address",
          "name": "nftCollateralContract",
          "type": "address"
        },
        {
          "indexed": false,
          "internalType": "bool",
          "name": "interestIsProRated",
          "type": "bool"
        }
      ],
      "name": "LoanStarted",
      "type": "event"
    },
    {
      "anonymous": false,
      "inputs": [
        {
          "indexed": true,
          "internalType": "address",
          "name": "previousOwner",
          "type": "address"
        },
        {
          "indexed": true,
          "internalType": "address",
          "name": "newOwner",
          "type": "address"
        }
      ],
      "name": "OwnershipTransferred",
      "type": "event"
    },
    {
      "anonymous": false,
      "inputs": [
        {
          "indexed": false,
          "internalType": "address",
          "name": "account",
          "type": "address"
        }
      ],
      "name": "Paused",
      "type": "event"
    },
    {
      "anonymous": false,
      "inputs": [
        {
          "indexed": true,
          "internalType": "address",
          "name": "account",
          "type": "address"
        }
      ],
      "name": "PauserAdded",
      "type": "event"
    },
    {
      "anonymous": false,
      "inputs": [
        {
          "indexed": true,
          "internalType": "address",
          "name": "account",
          "type": "address"
        }
      ],
      "name": "PauserRemoved",
      "type": "event"
    },
    {
      "anonymous": false,
      "inputs": [
        {
          "indexed": true,
          "internalType": "address",
          "name": "from",
          "type": "address"
        },
        {
          "indexed": true,
          "internalType": "address",
          "name": "to",
          "type": "address"
        },
        {
          "indexed": true,
          "internalType": "uint256",
          "name": "tokenId",
          "type": "uint256"
        }
      ],
      "name": "Transfer",
      "type": "event"
    },
    {
      "anonymous": false,
      "inputs": [
        {
          "indexed": false,
          "internalType": "address",
          "name": "account",
          "type": "address"
        }
      ],
      "name": "Unpaused",
      "type": "event"
    },
    {
      "inputs": [
        {
          "internalType": "address",
          "name": "account",
          "type": "address"
        }
      ],
      "name": "addPauser",
      "outputs": [],
      "stateMutability": "nonpayable",
      "type": "function"
    },
    {
      "inputs": [],
      "name": "adminFeeInMatic",
      "outputs": [
        {
          "internalType": "uint256",
          "name": "",
          "type": "uint256"
        }
      ],
      "stateMutability": "view",
      "type": "function"
    },
    {
      "inputs": [
        {
          "internalType": "address",
          "name": "to",
          "type": "address"
        },
        {
          "internalType": "uint256",
          "name": "tokenId",
          "type": "uint256"
        }
      ],
      "name": "approve",
      "outputs": [],
      "stateMutability": "nonpayable",
      "type": "function"
    },
    {
      "inputs": [
        {
          "internalType": "address",
          "name": "owner",
          "type": "address"
        }
      ],
      "name": "balanceOf",
      "outputs": [
        {
          "internalType": "uint256",
          "name": "",
          "type": "uint256"
        }
      ],
      "stateMutability": "view",
      "type": "function"
    },
    {
      "inputs": [
        {
          "internalType": "uint256",
          "name": "_loanPrincipalAmount",
          "type": "uint256"
        },
        {
          "internalType": "uint256",
          "name": "_maximumRepaymentAmount",
          "type": "uint256"
        },
        {
          "internalType": "uint256",
          "name": "_nftCollateralId",
          "type": "uint256"
        },
        {
          "internalType": "uint256",
          "name": "_loanDuration",
          "type": "uint256"
        },
        {
          "internalType": "uint256",
          "name": "_loanInterestRateForDurationInBasisPoints",
          "type": "uint256"
        },
        {
          "internalType": "uint256",
          "name": "_adminFeeInBasisPoints",
          "type": "uint256"
        },
        {
          "internalType": "address",
          "name": "_nftCollateralContract",
          "type": "address"
        }
      ],
      "name": "beginLoan",
      "outputs": [],
      "stateMutability": "payable",
      "type": "function"
    },
    {
      "inputs": [
        {
          "internalType": "uint256",
          "name": "tokenId",
          "type": "uint256"
        }
      ],
      "name": "getApproved",
      "outputs": [
        {
          "internalType": "address",
          "name": "",
          "type": "address"
        }
      ],
      "stateMutability": "view",
      "type": "function"
    },
    {
      "inputs": [
        {
          "internalType": "uint256",
          "name": "_loanId",
          "type": "uint256"
        }
      ],
      "name": "getPayoffAmount",
      "outputs": [
        {
          "internalType": "uint256",
          "name": "",
          "type": "uint256"
        }
      ],
      "stateMutability": "view",
      "type": "function"
    },
    {
      "inputs": [
        {
          "internalType": "address",
          "name": "owner",
          "type": "address"
        },
        {
          "internalType": "address",
          "name": "operator",
          "type": "address"
        }
      ],
      "name": "isApprovedForAll",
      "outputs": [
        {
          "internalType": "bool",
          "name": "",
          "type": "bool"
        }
      ],
      "stateMutability": "view",
      "type": "function"
    },
    {
      "inputs": [
        {
          "internalType": "address",
          "name": "account",
          "type": "address"
        }
      ],
      "name": "isPauser",
      "outputs": [
        {
          "internalType": "bool",
          "name": "",
          "type": "bool"
        }
      ],
      "stateMutability": "view",
      "type": "function"
    },
    {
      "inputs": [
        {
          "internalType": "uint256",
          "name": "_loanId",
          "type": "uint256"
        }
      ],
      "name": "liquidateOverdueLoan",
      "outputs": [],
      "stateMutability": "nonpayable",
      "type": "function"
    },
    {
      "inputs": [],
      "name": "loanDuration",
      "outputs": [
        {
          "internalType": "uint256",
          "name": "",
          "type": "uint256"
        }
      ],
      "stateMutability": "view",
      "type": "function"
    },
    {
      "inputs": [
        {
          "internalType": "uint256",
          "name": "",
          "type": "uint256"
        }
      ],
      "name": "loanIdToLoan",
      "outputs": [
        {
          "internalType": "uint256",
          "name": "loanId",
          "type": "uint256"
        },
        {
          "internalType": "uint256",
          "name": "loanPrincipalAmount",
          "type": "uint256"
        },
        {
          "internalType": "uint256",
          "name": "maximumRepaymentAmount",
          "type": "uint256"
        },
        {
          "internalType": "uint256",
          "name": "nftCollateralId",
          "type": "uint256"
        },
        {
          "internalType": "uint64",
          "name": "loanStartTime",
          "type": "uint64"
        },
        {
          "internalType": "uint32",
          "name": "loanDuration",
          "type": "uint32"
        },
        {
          "internalType": "uint32",
          "name": "loanInterestRateForDurationInBasisPoints",
          "type": "uint32"
        },
        {
          "internalType": "uint32",
          "name": "loanAdminFeeInBasisPoints",
          "type": "uint32"
        },
        {
          "internalType": "address",
          "name": "nftCollateralContract",
          "type": "address"
        },
        {
          "internalType": "address",
          "name": "borrower",
          "type": "address"
        },
        {
          "internalType": "bool",
          "name": "interestIsProRated",
          "type": "bool"
        }
      ],
      "stateMutability": "view",
      "type": "function"
    },
    {
      "inputs": [
        {
          "internalType": "uint256",
          "name": "",
          "type": "uint256"
        }
      ],
      "name": "loanRepaidOrLiquidated",
      "outputs": [
        {
          "internalType": "bool",
          "name": "",
          "type": "bool"
        }
      ],
      "stateMutability": "view",
      "type": "function"
    },
    {
      "inputs": [],
      "name": "maximumNumberOfActiveLoans",
      "outputs": [
        {
          "internalType": "uint256",
          "name": "",
          "type": "uint256"
        }
      ],
      "stateMutability": "view",
      "type": "function"
    },
    {
      "inputs": [],
      "name": "name",
      "outputs": [
        {
          "internalType": "string",
          "name": "",
          "type": "string"
        }
      ],
      "stateMutability": "view",
      "type": "function"
    },
    {
      "inputs": [
        {
          "internalType": "address",
          "name": "",
          "type": "address"
        }
      ],
      "name": "nftContractIsWhitelisted",
      "outputs": [
        {
          "internalType": "bool",
          "name": "",
          "type": "bool"
        }
      ],
      "stateMutability": "view",
      "type": "function"
    },
    {
      "inputs": [],
      "name": "owner",
      "outputs": [
        {
          "internalType": "address",
          "name": "",
          "type": "address"
        }
      ],
      "stateMutability": "view",
      "type": "function"
    },
    {
      "inputs": [
        {
          "internalType": "uint256",
          "name": "tokenId",
          "type": "uint256"
        }
      ],
      "name": "ownerOf",
      "outputs": [
        {
          "internalType": "address",
          "name": "",
          "type": "address"
        }
      ],
      "stateMutability": "view",
      "type": "function"
    },
    {
      "inputs": [],
      "name": "pause",
      "outputs": [],
      "stateMutability": "nonpayable",
      "type": "function"
    },
    {
      "inputs": [],
      "name": "paused",
      "outputs": [
        {
          "internalType": "bool",
          "name": "",
          "type": "bool"
        }
      ],
      "stateMutability": "view",
      "type": "function"
    },
    {
      "inputs": [
        {
          "internalType": "uint256",
          "name": "_loanId",
          "type": "uint256"
        }
      ],
      "name": "payBackLoan",
      "outputs": [],
      "stateMutability": "payable",
      "type": "function"
    },
    {
      "inputs": [],
      "name": "renounceOwnership",
      "outputs": [],
      "stateMutability": "nonpayable",
      "type": "function"
    },
    {
      "inputs": [],
      "name": "renouncePauser",
      "outputs": [],
      "stateMutability": "nonpayable",
      "type": "function"
    },
    {
      "inputs": [
        {
          "internalType": "address",
          "name": "from",
          "type": "address"
        },
        {
          "internalType": "address",
          "name": "to",
          "type": "address"
        },
        {
          "internalType": "uint256",
          "name": "tokenId",
          "type": "uint256"
        }
      ],
      "name": "safeTransferFrom",
      "outputs": [],
      "stateMutability": "nonpayable",
      "type": "function"
    },
    {
      "inputs": [
        {
          "internalType": "address",
          "name": "from",
          "type": "address"
        },
        {
          "internalType": "address",
          "name": "to",
          "type": "address"
        },
        {
          "internalType": "uint256",
          "name": "tokenId",
          "type": "uint256"
        },
        {
          "internalType": "bytes",
          "name": "_data",
          "type": "bytes"
        }
      ],
      "name": "safeTransferFrom",
      "outputs": [],
      "stateMutability": "nonpayable",
      "type": "function"
    },
    {
      "inputs": [
        {
          "internalType": "address",
          "name": "operator",
          "type": "address"
        },
        {
          "internalType": "bool",
          "name": "approved",
          "type": "bool"
        }
      ],
      "name": "setApprovalForAll",
      "outputs": [],
      "stateMutability": "nonpayable",
      "type": "function"
    },
    {
      "inputs": [
        {
          "internalType": "bytes4",
          "name": "interfaceId",
          "type": "bytes4"
        }
      ],
      "name": "supportsInterface",
      "outputs": [
        {
          "internalType": "bool",
          "name": "",
          "type": "bool"
        }
      ],
      "stateMutability": "view",
      "type": "function"
    },
    {
      "inputs": [],
      "name": "symbol",
      "outputs": [
        {
          "internalType": "string",
          "name": "",
          "type": "string"
        }
      ],
      "stateMutability": "view",
      "type": "function"
    },
    {
      "inputs": [
        {
          "internalType": "uint256",
          "name": "tokenId",
          "type": "uint256"
        }
      ],
      "name": "tokenURI",
      "outputs": [
        {
          "internalType": "string",
          "name": "",
          "type": "string"
        }
      ],
      "stateMutability": "view",
      "type": "function"
    },
    {
      "inputs": [],
      "name": "totalActiveLoans",
      "outputs": [
        {
          "internalType": "uint256",
          "name": "",
          "type": "uint256"
        }
      ],
      "stateMutability": "view",
      "type": "function"
    },
    {
      "inputs": [],
      "name": "totalNumLoans",
      "outputs": [
        {
          "internalType": "uint256",
          "name": "",
          "type": "uint256"
        }
      ],
      "stateMutability": "view",
      "type": "function"
    },
    {
      "inputs": [
        {
          "internalType": "address",
          "name": "from",
          "type": "address"
        },
        {
          "internalType": "address",
          "name": "to",
          "type": "address"
        },
        {
          "internalType": "uint256",
          "name": "tokenId",
          "type": "uint256"
        }
      ],
      "name": "transferFrom",
      "outputs": [],
      "stateMutability": "nonpayable",
      "type": "function"
    },
    {
      "inputs": [
        {
          "internalType": "address",
          "name": "newOwner",
          "type": "address"
        }
      ],
      "name": "transferOwnership",
      "outputs": [],
      "stateMutability": "nonpayable",
      "type": "function"
    },
    {
      "inputs": [],
      "name": "unpause",
      "outputs": [],
      "stateMutability": "nonpayable",
      "type": "function"
    },
    {
      "inputs": [
        {
          "internalType": "uint256",
          "name": "_newAdminFeeInMatic",
          "type": "uint256"
        }
      ],
      "name": "updateAdminFee",
      "outputs": [],
      "stateMutability": "nonpayable",
      "type": "function"
    },
    {
      "inputs": [
        {
          "internalType": "uint256",
          "name": "_newLoanDuration",
          "type": "uint256"
        }
      ],
      "name": "updateLoanDuration",
      "outputs": [],
      "stateMutability": "nonpayable",
      "type": "function"
    },
    {
      "inputs": [
        {
          "internalType": "uint256",
          "name": "_newMaximumNumberOfActiveLoans",
          "type": "uint256"
        }
      ],
      "name": "updateMaximumNumberOfActiveLoans",
      "outputs": [],
      "stateMutability": "nonpayable",
      "type": "function"
    },
    {
      "inputs": [
        {
          "internalType": "address",
          "name": "_nftContract",
          "type": "address"
        },
        {
          "internalType": "bool",
          "name": "_setAsWhitelisted",
          "type": "bool"
        }
      ],
      "name": "whitelistNFTContract",
      "outputs": [],
      "stateMutability": "nonpayable",
      "type": "function"
    },
    {
      "stateMutability": "payable",
      "type": "receive"
    }
  ],
  "bytecode": "0x6080604052621275006005556103e860065566b1a2bc2ec500006007556000600e556000600f556040518060400160405280600981526020017f5a696e6172204e465400000000000000000000000000000000000000000000008152506040518060400160405280600581526020017f5a494e4152000000000000000000000000000000000000000000000000000000815250620000b2620000a66200018c60201b60201c565b6200019460201b60201c565b620000c3336200025860201b60201c565b6000600260006101000a81548160ff021916908315150217905550600160038190555060016004600073a53f375f375f633f4f8db67af19dff1b9fcf735f73ffffffffffffffffffffffffffffffffffffffff1673ffffffffffffffffffffffffffffffffffffffff16815260200190815260200160002060006101000a81548160ff02191690831515021790555081600890805190602001906200016a92919062000402565b5080600990805190602001906200018392919062000402565b50505062000517565b600033905090565b60008060009054906101000a900473ffffffffffffffffffffffffffffffffffffffff169050816000806101000a81548173ffffffffffffffffffffffffffffffffffffffff021916908373ffffffffffffffffffffffffffffffffffffffff1602179055508173ffffffffffffffffffffffffffffffffffffffff168173ffffffffffffffffffffffffffffffffffffffff167f8be0079c531659141344cd1fd0a4f28419497f9722a3daafe3b4186f6b6457e060405160405180910390a35050565b62000273816001620002b960201b620029cd1790919060201c565b8073ffffffffffffffffffffffffffffffffffffffff167f6719d08c1888103bea251a4ed56406bd0c3e69723c8a1686e017e7bbe159b6f860405160405180910390a250565b600073ffffffffffffffffffffffffffffffffffffffff168173ffffffffffffffffffffffffffffffffffffffff161415620002f457600080fd5b6200030682826200036f60201b60201c565b156200031157600080fd5b60018260000160008373ffffffffffffffffffffffffffffffffffffffff1673ffffffffffffffffffffffffffffffffffffffff16815260200190815260200160002060006101000a81548160ff0219169083151502179055505050565b60008073ffffffffffffffffffffffffffffffffffffffff168273ffffffffffffffffffffffffffffffffffffffff161415620003ab57600080fd5b8260000160008373ffffffffffffffffffffffffffffffffffffffff1673ffffffffffffffffffffffffffffffffffffffff16815260200190815260200160002060009054906101000a900460ff16905092915050565b8280546200041090620004e1565b90600052602060002090601f01602090048101928262000434576000855562000480565b82601f106200044f57805160ff191683800117855562000480565b8280016001018555821562000480579182015b828111156200047f57825182559160200191906001019062000462565b5b5090506200048f919062000493565b5090565b5b80821115620004ae57600081600090555060010162000494565b5090565b7f4e487b7100000000000000000000000000000000000000000000000000000000600052602260045260246000fd5b60006002820490506001821680620004fa57607f821691505b60208210811415620005115762000510620004b2565b5b50919050565b61552180620005276000396000f3fe6080604052600436106102295760003560e01c806370a0823111610123578063b9e53900116100ab578063dc63af411161006f578063dc63af41146107fa578063e985e9c514610825578063eaccaf6514610862578063f2fde38b1461088d578063f5521bf1146108b657610230565b8063b9e53900146106fb578063ba43a92214610724578063c81bd7a61461074d578063c87b56dd14610794578063cff1b6ef146107d157610230565b80638da5cb5b116100f25780638da5cb5b1461063757806395d89b4114610662578063a22cb4651461068d578063b59b6010146106b6578063b88d4fde146106d257610230565b806370a08231146105a3578063715018a6146105e057806382dc1ec4146105f75780638456cb591461062057610230565b806346fbf68e116101b15780636352211e116101755780636352211e146104cd578063643f6e321461050a57806365ab6a08146105335780636ef8d66d146105705780636faa8b3f1461058757610230565b806346fbf68e146103d457806351d0908c146104115780635794fefc1461044e5780635c975abb1461047957806361851d65146104a457610230565b80630d9476ff116101f85780630d9476ff146103035780631e91b1db1461034057806323b872dd1461036b5780633f4ba83a1461039457806342842e0e146103ab57610230565b806301ffc9a71461023557806306fdde0314610272578063081812fc1461029d578063095ea7b3146102da57610230565b3661023057005b600080fd5b34801561024157600080fd5b5061025c60048036038101906102579190613981565b6108e1565b60405161026991906139c9565b60405180910390f35b34801561027e57600080fd5b506102876109c3565b6040516102949190613a7d565b60405180910390f35b3480156102a957600080fd5b506102c460048036038101906102bf9190613ad5565b610a55565b6040516102d19190613b43565b60405180910390f35b3480156102e657600080fd5b5061030160048036038101906102fc9190613b8a565b610ada565b005b34801561030f57600080fd5b5061032a60048036038101906103259190613ad5565b610bf2565b60405161033791906139c9565b60405180910390f35b34801561034c57600080fd5b50610355610c12565b6040516103629190613bd9565b60405180910390f35b34801561037757600080fd5b50610392600480360381019061038d9190613bf4565b610c18565b005b3480156103a057600080fd5b506103a9610c78565b005b3480156103b757600080fd5b506103d260048036038101906103cd9190613bf4565b610cf7565b005b3480156103e057600080fd5b506103fb60048036038101906103f69190613c47565b610d17565b60405161040891906139c9565b60405180910390f35b34801561041d57600080fd5b5061043860048036038101906104339190613c47565b610d34565b60405161044591906139c9565b60405180910390f35b34801561045a57600080fd5b50610463610d54565b6040516104709190613bd9565b60405180910390f35b34801561048557600080fd5b5061048e610d5a565b60405161049b91906139c9565b60405180910390f35b3480156104b057600080fd5b506104cb60048036038101906104c69190613ad5565b610d71565b005b3480156104d957600080fd5b506104f460048036038101906104ef9190613ad5565b611265565b6040516105019190613b43565b60405180910390f35b34801561051657600080fd5b50610531600480360381019061052c9190613ad5565b611317565b005b34801561053f57600080fd5b5061055a60048036038101906105559190613ad5565b61139d565b6040516105679190613bd9565b60405180910390f35b34801561057c57600080fd5b50610585611488565b005b6105a1600480360381019061059c9190613ad5565b611493565b005b3480156105af57600080fd5b506105ca60048036038101906105c59190613c47565b611ab7565b6040516105d79190613bd9565b60405180910390f35b3480156105ec57600080fd5b506105f5611b6f565b005b34801561060357600080fd5b5061061e60048036038101906106199190613c47565b611bf7565b005b34801561062c57600080fd5b50610635611c15565b005b34801561064357600080fd5b5061064c611c95565b6040516106599190613b43565b60405180910390f35b34801561066e57600080fd5b50610677611cbe565b6040516106849190613a7d565b60405180910390f35b34801561069957600080fd5b506106b460048036038101906106af9190613ca0565b611d50565b005b6106d060048036038101906106cb9190613ce0565b611d66565b005b3480156106de57600080fd5b506106f960048036038101906106f49190613eb7565b612391565b005b34801561070757600080fd5b50610722600480360381019061071d9190613ca0565b6123f3565b005b34801561073057600080fd5b5061074b60048036038101906107469190613ad5565b6124ca565b005b34801561075957600080fd5b50610774600480360381019061076f9190613ad5565b61259b565b60405161078b9b9a99989796959493929190613f7c565b60405180910390f35b3480156107a057600080fd5b506107bb60048036038101906107b69190613ad5565b612686565b6040516107c89190613a7d565b60405180910390f35b3480156107dd57600080fd5b506107f860048036038101906107f39190613ad5565b61272d565b005b34801561080657600080fd5b5061080f61282f565b60405161081c9190613bd9565b60405180910390f35b34801561083157600080fd5b5061084c60048036038101906108479190614027565b612835565b60405161085991906139c9565b60405180910390f35b34801561086e57600080fd5b506108776128c9565b6040516108849190613bd9565b60405180910390f35b34801561089957600080fd5b506108b460048036038101906108af9190613c47565b6128cf565b005b3480156108c257600080fd5b506108cb6129c7565b6040516108d89190613bd9565b60405180910390f35b60007f80ac58cd000000000000000000000000000000000000000000000000000000007bffffffffffffffffffffffffffffffffffffffffffffffffffffffff1916827bffffffffffffffffffffffffffffffffffffffffffffffffffffffff191614806109ac57507f5b5e139f000000000000000000000000000000000000000000000000000000007bffffffffffffffffffffffffffffffffffffffffffffffffffffffff1916827bffffffffffffffffffffffffffffffffffffffffffffffffffffffff1916145b806109bc57506109bb82612a79565b5b9050919050565b6060600880546109d290614096565b80601f01602080910402602001604051908101604052809291908181526020018280546109fe90614096565b8015610a4b5780601f10610a2057610100808354040283529160200191610a4b565b820191906000526020600020905b815481529060010190602001808311610a2e57829003601f168201915b5050505050905090565b6000610a6082612ae3565b610a9f576040517f08c379a0000000000000000000000000000000000000000000000000000000008152600401610a969061413a565b60405180910390fd5b600c600083815260200190815260200160002060009054906101000a900473ffffffffffffffffffffffffffffffffffffffff169050919050565b6000610ae582611265565b90508073ffffffffffffffffffffffffffffffffffffffff168373ffffffffffffffffffffffffffffffffffffffff161415610b56576040517f08c379a0000000000000000000000000000000000000000000000000000000008152600401610b4d906141cc565b60405180910390fd5b8073ffffffffffffffffffffffffffffffffffffffff16610b75612b4f565b73ffffffffffffffffffffffffffffffffffffffff161480610ba45750610ba381610b9e612b4f565b612835565b5b610be3576040517f08c379a0000000000000000000000000000000000000000000000000000000008152600401610bda9061425e565b60405180910390fd5b610bed8383612b57565b505050565b60116020528060005260406000206000915054906101000a900460ff1681565b60075481565b610c29610c23612b4f565b82612c10565b610c68576040517f08c379a0000000000000000000000000000000000000000000000000000000008152600401610c5f906142f0565b60405180910390fd5b610c73838383612cee565b505050565b610c8133610d17565b610c8a57600080fd5b600260009054906101000a900460ff16610ca357600080fd5b6000600260006101000a81548160ff0219169083151502179055507f5db9ee0a495bf2e6ff9c91a7834c1ba4fdd244a5e8aa4e537bd38aeae4b073aa33604051610ced9190613b43565b60405180910390a1565b610d1283838360405180602001604052806000815250612391565b505050565b6000610d2d826001612f5590919063ffffffff16565b9050919050565b60046020528060005260406000206000915054906101000a900460ff1681565b600e5481565b6000600260009054906101000a900460ff16905090565b60026003541415610db7576040517f08c379a0000000000000000000000000000000000000000000000000000000008152600401610dae9061435c565b60405180910390fd5b6002600381905550610dc7612b4f565b73ffffffffffffffffffffffffffffffffffffffff16610de5611c95565b73ffffffffffffffffffffffffffffffffffffffff1614610e3b576040517f08c379a0000000000000000000000000000000000000000000000000000000008152600401610e32906143c8565b60405180910390fd5b6011600082815260200190815260200160002060009054906101000a900460ff1615610e9c576040517f08c379a0000000000000000000000000000000000000000000000000000000008152600401610e939061445a565b60405180910390fd5b60006010600083815260200190815260200160002060405180610160016040529081600082015481526020016001820154815260200160028201548152602001600382015481526020016004820160009054906101000a900467ffffffffffffffff1667ffffffffffffffff1667ffffffffffffffff1681526020016004820160089054906101000a900463ffffffff1663ffffffff1663ffffffff16815260200160048201600c9054906101000a900463ffffffff1663ffffffff1663ffffffff1681526020016004820160109054906101000a900463ffffffff1663ffffffff1663ffffffff1681526020016005820160009054906101000a900473ffffffffffffffffffffffffffffffffffffffff1673ffffffffffffffffffffffffffffffffffffffff1673ffffffffffffffffffffffffffffffffffffffff1681526020016006820160009054906101000a900473ffffffffffffffffffffffffffffffffffffffff1673ffffffffffffffffffffffffffffffffffffffff1673ffffffffffffffffffffffffffffffffffffffff1681526020016006820160149054906101000a900460ff1615151515815250509050600061107f8260a0015163ffffffff16836080015167ffffffffffffffff16612fe790919063ffffffff16565b90508042116110c3576040517f08c379a00000000000000000000000000000000000000000000000000000000081526004016110ba906144c6565b60405180910390fd5b60016011600085815260200190815260200160002060006101000a81548160ff0219169083151502179055506111056001600f54612ffd90919063ffffffff16565b600f819055507fefc46a9ca424dc47d16f7a49e70ccf96db649fc6c7e15efb3d890b58352456748383610120015184602001518560600151854288610100015160405161115897969594939291906144e6565b60405180910390a1601060008481526020019081526020016000206000808201600090556001820160009055600282016000905560038201600090556004820160006101000a81549067ffffffffffffffff02191690556004820160086101000a81549063ffffffff021916905560048201600c6101000a81549063ffffffff02191690556004820160106101000a81549063ffffffff02191690556005820160006101000a81549073ffffffffffffffffffffffffffffffffffffffff02191690556006820160006101000a81549073ffffffffffffffffffffffffffffffffffffffff02191690556006820160146101000a81549060ff021916905550505050600160038190555050565b600080600a600084815260200190815260200160002060009054906101000a900473ffffffffffffffffffffffffffffffffffffffff169050600073ffffffffffffffffffffffffffffffffffffffff168173ffffffffffffffffffffffffffffffffffffffff16141561130e576040517f08c379a0000000000000000000000000000000000000000000000000000000008152600401611305906145c7565b60405180910390fd5b80915050919050565b61131f612b4f565b73ffffffffffffffffffffffffffffffffffffffff1661133d611c95565b73ffffffffffffffffffffffffffffffffffffffff1614611393576040517f08c379a000000000000000000000000000000000000000000000000000000000815260040161138a906143c8565b60405180910390fd5b8060068190555050565b600080601060008481526020019081526020016000209050600015158160060160149054906101000a900460ff16151514156113e0578060020154915050611483565b60006114178260040160009054906101000a900467ffffffffffffffff1667ffffffffffffffff1642612ffd90919063ffffffff16565b9050600061146483600101548460020154848660040160089054906101000a900463ffffffff1663ffffffff1687600401600c9054906101000a900463ffffffff1663ffffffff16613013565b905061147d818460010154612fe790919063ffffffff16565b93505050505b919050565b611491336130ad565b565b600260035414156114d9576040517f08c379a00000000000000000000000000000000000000000000000000000000081526004016114d09061435c565b60405180910390fd5b60026003819055506011600082815260200190815260200160002060009054906101000a900460ff1615611542576040517f08c379a00000000000000000000000000000000000000000000000000000000081526004016115399061445a565b60405180910390fd5b60006010600083815260200190815260200160002060405180610160016040529081600082015481526020016001820154815260200160028201548152602001600382015481526020016004820160009054906101000a900467ffffffffffffffff1667ffffffffffffffff1667ffffffffffffffff1681526020016004820160089054906101000a900463ffffffff1663ffffffff1663ffffffff16815260200160048201600c9054906101000a900463ffffffff1663ffffffff1663ffffffff1681526020016004820160109054906101000a900463ffffffff1663ffffffff1663ffffffff1681526020016005820160009054906101000a900473ffffffffffffffffffffffffffffffffffffffff1673ffffffffffffffffffffffffffffffffffffffff1673ffffffffffffffffffffffffffffffffffffffff1681526020016006820160009054906101000a900473ffffffffffffffffffffffffffffffffffffffff1673ffffffffffffffffffffffffffffffffffffffff1673ffffffffffffffffffffffffffffffffffffffff1681526020016006820160149054906101000a900460ff161515151581525050905080610120015173ffffffffffffffffffffffffffffffffffffffff163373ffffffffffffffffffffffffffffffffffffffff161461176b576040517f08c379a00000000000000000000000000000000000000000000000000000000081526004016117629061467f565b60405180910390fd5b600061178882602001518360400151612ffd90919063ffffffff16565b905060011515826101400151151514156117e8576117e5826020015183604001516117ca856080015167ffffffffffffffff1642612ffd90919063ffffffff16565b8560a0015163ffffffff168660c0015163ffffffff16613013565b90505b60006117fe828460e0015163ffffffff16613107565b9050600061182b8261181d858760200151612fe790919063ffffffff16565b612ffd90919063ffffffff16565b905060016011600087815260200190815260200160002060006101000a81548160ff02191690831515021790555061186f6001600f54612ffd90919063ffffffff16565b600f819055503073ffffffffffffffffffffffffffffffffffffffff166108fc829081150290604051600060405180830381858888f193505050501580156118bb573d6000803e3d6000fd5b503073ffffffffffffffffffffffffffffffffffffffff166108fc839081150290604051600060405180830381858888f19350505050158015611902573d6000803e3d6000fd5b5061191c8461010001518560600151866101200151613138565b61195b576040517f08c379a000000000000000000000000000000000000000000000000000000000815260040161195290614711565b60405180910390fd5b7f03601f488bba66af827cd1b5a040eb13124ce13481aa4e221c010689f8701512858561012001518660200151876060015185878a61010001516040516119a897969594939291906144e6565b60405180910390a1601060008681526020019081526020016000206000808201600090556001820160009055600282016000905560038201600090556004820160006101000a81549067ffffffffffffffff02191690556004820160086101000a81549063ffffffff021916905560048201600c6101000a81549063ffffffff02191690556004820160106101000a81549063ffffffff02191690556005820160006101000a81549073ffffffffffffffffffffffffffffffffffffffff02191690556006820160006101000a81549073ffffffffffffffffffffffffffffffffffffffff02191690556006820160146101000a81549060ff0219169055505050505050600160038190555050565b60008073ffffffffffffffffffffffffffffffffffffffff168273ffffffffffffffffffffffffffffffffffffffff161415611b28576040517f08c379a0000000000000000000000000000000000000000000000000000000008152600401611b1f906147a3565b60405180910390fd5b600b60008373ffffffffffffffffffffffffffffffffffffffff1673ffffffffffffffffffffffffffffffffffffffff168152602001908152602001600020549050919050565b611b77612b4f565b73ffffffffffffffffffffffffffffffffffffffff16611b95611c95565b73ffffffffffffffffffffffffffffffffffffffff1614611beb576040517f08c379a0000000000000000000000000000000000000000000000000000000008152600401611be2906143c8565b60405180910390fd5b611bf5600061322a565b565b611c0033610d17565b611c0957600080fd5b611c12816132ee565b50565b611c1e33610d17565b611c2757600080fd5b600260009054906101000a900460ff1615611c4157600080fd5b6001600260006101000a81548160ff0219169083151502179055507f62e78cea01bee320cd4e420270b5ea74000d11b0c9f74754ebdbfc544b05a25833604051611c8b9190613b43565b60405180910390a1565b60008060009054906101000a900473ffffffffffffffffffffffffffffffffffffffff16905090565b606060098054611ccd90614096565b80601f0160208091040260200160405190810160405280929190818152602001828054611cf990614096565b8015611d465780601f10611d1b57610100808354040283529160200191611d46565b820191906000526020600020905b815481529060010190602001808311611d2957829003601f168201915b5050505050905090565b611d62611d5b612b4f565b8383613348565b5050565b600260009054906101000a900460ff1615611d8057600080fd5b60026003541415611dc6576040517f08c379a0000000000000000000000000000000000000000000000000000000008152600401611dbd9061435c565b60405180910390fd5b60026003819055506000604051806101600160405280600e5481526020018981526020018881526020018781526020014267ffffffffffffffff1681526020018663ffffffff1681526020018563ffffffff1681526020018463ffffffff1681526020018373ffffffffffffffffffffffffffffffffffffffff1681526020013373ffffffffffffffffffffffffffffffffffffffff16815260200160001963ffffffff1686141515158152509050806020015181604001511015611ec0576040517f08c379a0000000000000000000000000000000000000000000000000000000008152600401611eb790614835565b60405180910390fd5b6005548160a0015163ffffffff161115611f0f576040517f08c379a0000000000000000000000000000000000000000000000000000000008152600401611f06906148c7565b60405180910390fd5b60008160a0015163ffffffff161415611f5d576040517f08c379a0000000000000000000000000000000000000000000000000000000008152600401611f5490614933565b60405180910390fd5b6007548160e0015163ffffffff1614611fab576040517f08c379a0000000000000000000000000000000000000000000000000000000008152600401611fa2906149c5565b60405180910390fd5b6004600082610100015173ffffffffffffffffffffffffffffffffffffffff1673ffffffffffffffffffffffffffffffffffffffff16815260200190815260200160002060009054906101000a900460ff1661203c576040517f08c379a000000000000000000000000000000000000000000000000000000000815260040161203390614a7d565b60405180910390fd5b6120526001600e54612fe790919063ffffffff16565b600e819055508060106000600e5481526020019081526020016000206000820151816000015560208201518160010155604082015181600201556060820151816003015560808201518160040160006101000a81548167ffffffffffffffff021916908367ffffffffffffffff16021790555060a08201518160040160086101000a81548163ffffffff021916908363ffffffff16021790555060c082015181600401600c6101000a81548163ffffffff021916908363ffffffff16021790555060e08201518160040160106101000a81548163ffffffff021916908363ffffffff1602179055506101008201518160050160006101000a81548173ffffffffffffffffffffffffffffffffffffffff021916908373ffffffffffffffffffffffffffffffffffffffff1602179055506101208201518160060160006101000a81548173ffffffffffffffffffffffffffffffffffffffff021916908373ffffffffffffffffffffffffffffffffffffffff1602179055506101408201518160060160146101000a81548160ff0219169083151502179055509050506122046001600f54612fe790919063ffffffff16565b600f81905550600654600f541115612251576040517f08c379a000000000000000000000000000000000000000000000000000000000815260040161224890614b35565b60405180910390fd5b80610100015173ffffffffffffffffffffffffffffffffffffffff166323b872dd333084606001516040518463ffffffff1660e01b815260040161229793929190614b55565b600060405180830381600087803b1580156122b157600080fd5b505af11580156122c5573d6000803e3d6000fd5b505050503373ffffffffffffffffffffffffffffffffffffffff166108fc82602001519081150290604051600060405180830381858888f19350505050158015612313573d6000803e3d6000fd5b507f0f846a7bca4b3a43a77325de9c24bc4884dcad0531b6fbc52d530aa8a4244bff816000015133836020015184604001518560600151428760a001518860c001518961010001518a61014001516040516123779a99989796959493929190614bc7565b60405180910390a150600160038190555050505050505050565b6123a261239c612b4f565b83612c10565b6123e1576040517f08c379a00000000000000000000000000000000000000000000000000000000081526004016123d8906142f0565b60405180910390fd5b6123ed848484846134b5565b50505050565b6123fb612b4f565b73ffffffffffffffffffffffffffffffffffffffff16612419611c95565b73ffffffffffffffffffffffffffffffffffffffff161461246f576040517f08c379a0000000000000000000000000000000000000000000000000000000008152600401612466906143c8565b60405180910390fd5b80600460008473ffffffffffffffffffffffffffffffffffffffff1673ffffffffffffffffffffffffffffffffffffffff16815260200190815260200160002060006101000a81548160ff0219169083151502179055505050565b6124d2612b4f565b73ffffffffffffffffffffffffffffffffffffffff166124f0611c95565b73ffffffffffffffffffffffffffffffffffffffff1614612546576040517f08c379a000000000000000000000000000000000000000000000000000000000815260040161253d906143c8565b60405180910390fd5b60001963ffffffff16811115612591576040517f08c379a000000000000000000000000000000000000000000000000000000000815260040161258890614cd5565b60405180910390fd5b8060058190555050565b60106020528060005260406000206000915090508060000154908060010154908060020154908060030154908060040160009054906101000a900467ffffffffffffffff16908060040160089054906101000a900463ffffffff169080600401600c9054906101000a900463ffffffff16908060040160109054906101000a900463ffffffff16908060050160009054906101000a900473ffffffffffffffffffffffffffffffffffffffff16908060060160009054906101000a900473ffffffffffffffffffffffffffffffffffffffff16908060060160149054906101000a900460ff1690508b565b606061269182612ae3565b6126d0576040517f08c379a00000000000000000000000000000000000000000000000000000000081526004016126c790614d67565b60405180910390fd5b60006126da613511565b905060008151116126fa5760405180602001604052806000815250612725565b8061270484613528565b604051602001612715929190614dc3565b6040516020818303038152906040525b915050919050565b612735612b4f565b73ffffffffffffffffffffffffffffffffffffffff16612753611c95565b73ffffffffffffffffffffffffffffffffffffffff16146127a9576040517f08c379a00000000000000000000000000000000000000000000000000000000081526004016127a0906143c8565b60405180910390fd5b6127108111156127ee576040517f08c379a00000000000000000000000000000000000000000000000000000000081526004016127e590614e33565b60405180910390fd5b806007819055507f36a705a6c19db3ef2d8bf55ca55188c8499831bdf4fb8cd76fc1cf98b740bd27816040516128249190613bd9565b60405180910390a150565b600f5481565b6000600d60008473ffffffffffffffffffffffffffffffffffffffff1673ffffffffffffffffffffffffffffffffffffffff16815260200190815260200160002060008373ffffffffffffffffffffffffffffffffffffffff1673ffffffffffffffffffffffffffffffffffffffff16815260200190815260200160002060009054906101000a900460ff16905092915050565b60065481565b6128d7612b4f565b73ffffffffffffffffffffffffffffffffffffffff166128f5611c95565b73ffffffffffffffffffffffffffffffffffffffff161461294b576040517f08c379a0000000000000000000000000000000000000000000000000000000008152600401612942906143c8565b60405180910390fd5b600073ffffffffffffffffffffffffffffffffffffffff168173ffffffffffffffffffffffffffffffffffffffff1614156129bb576040517f08c379a00000000000000000000000000000000000000000000000000000000081526004016129b290614ec5565b60405180910390fd5b6129c48161322a565b50565b60055481565b600073ffffffffffffffffffffffffffffffffffffffff168173ffffffffffffffffffffffffffffffffffffffff161415612a0757600080fd5b612a118282612f55565b15612a1b57600080fd5b60018260000160008373ffffffffffffffffffffffffffffffffffffffff1673ffffffffffffffffffffffffffffffffffffffff16815260200190815260200160002060006101000a81548160ff0219169083151502179055505050565b60007f01ffc9a7000000000000000000000000000000000000000000000000000000007bffffffffffffffffffffffffffffffffffffffffffffffffffffffff1916827bffffffffffffffffffffffffffffffffffffffffffffffffffffffff1916149050919050565b60008073ffffffffffffffffffffffffffffffffffffffff16600a600084815260200190815260200160002060009054906101000a900473ffffffffffffffffffffffffffffffffffffffff1673ffffffffffffffffffffffffffffffffffffffff1614159050919050565b600033905090565b81600c600083815260200190815260200160002060006101000a81548173ffffffffffffffffffffffffffffffffffffffff021916908373ffffffffffffffffffffffffffffffffffffffff160217905550808273ffffffffffffffffffffffffffffffffffffffff16612bca83611265565b73ffffffffffffffffffffffffffffffffffffffff167f8c5be1e5ebec7d5bd14f71427d1e84f3dd0314c0f7b2291e5b200ac8c7c3b92560405160405180910390a45050565b6000612c1b82612ae3565b612c5a576040517f08c379a0000000000000000000000000000000000000000000000000000000008152600401612c5190614f57565b60405180910390fd5b6000612c6583611265565b90508073ffffffffffffffffffffffffffffffffffffffff168473ffffffffffffffffffffffffffffffffffffffff161480612ca75750612ca68185612835565b5b80612ce557508373ffffffffffffffffffffffffffffffffffffffff16612ccd84610a55565b73ffffffffffffffffffffffffffffffffffffffff16145b91505092915050565b8273ffffffffffffffffffffffffffffffffffffffff16612d0e82611265565b73ffffffffffffffffffffffffffffffffffffffff1614612d64576040517f08c379a0000000000000000000000000000000000000000000000000000000008152600401612d5b90614fe9565b60405180910390fd5b600073ffffffffffffffffffffffffffffffffffffffff168273ffffffffffffffffffffffffffffffffffffffff161415612dd4576040517f08c379a0000000000000000000000000000000000000000000000000000000008152600401612dcb9061507b565b60405180910390fd5b612ddf838383613689565b612dea600082612b57565b6001600b60008573ffffffffffffffffffffffffffffffffffffffff1673ffffffffffffffffffffffffffffffffffffffff1681526020019081526020016000206000828254612e3a91906150ca565b925050819055506001600b60008473ffffffffffffffffffffffffffffffffffffffff1673ffffffffffffffffffffffffffffffffffffffff1681526020019081526020016000206000828254612e9191906150fe565b9250508190555081600a600083815260200190815260200160002060006101000a81548173ffffffffffffffffffffffffffffffffffffffff021916908373ffffffffffffffffffffffffffffffffffffffff160217905550808273ffffffffffffffffffffffffffffffffffffffff168473ffffffffffffffffffffffffffffffffffffffff167fddf252ad1be2c89b69c2b068fc378daa952ba7f163c4a11628f55a4df523b3ef60405160405180910390a4612f5083838361368e565b505050565b60008073ffffffffffffffffffffffffffffffffffffffff168273ffffffffffffffffffffffffffffffffffffffff161415612f9057600080fd5b8260000160008373ffffffffffffffffffffffffffffffffffffffff1673ffffffffffffffffffffffffffffffffffffffff16815260200190815260200160002060009054906101000a900460ff16905092915050565b60008183612ff591906150fe565b905092915050565b6000818361300b91906150ca565b905092915050565b60008061303d61271061302f858a61369390919063ffffffff16565b6136a990919063ffffffff16565b9050600061306685613058888561369390919063ffffffff16565b6136a990919063ffffffff16565b90508661307c828a612fe790919063ffffffff16565b111561309e576130958888612ffd90919063ffffffff16565b925050506130a4565b80925050505b95945050505050565b6130c18160016136bf90919063ffffffff16565b8073ffffffffffffffffffffffffffffffffffffffff167fcd265ebaf09df2871cc7bd4133404a235ba12eff2041bb89d9c714a2621c7c7e60405160405180910390a250565b6000613130612710613122848661369390919063ffffffff16565b6136a990919063ffffffff16565b905092915050565b6000808473ffffffffffffffffffffffffffffffffffffffff166323b872dd60e01b30858760405160240161316f93929190614b55565b604051602081830303815290604052907bffffffffffffffffffffffffffffffffffffffffffffffffffffffff19166020820180517bffffffffffffffffffffffffffffffffffffffffffffffffffffffff83818316178352505050506040516131d9919061519b565b6000604051808303816000865af19150503d8060008114613216576040519150601f19603f3d011682016040523d82523d6000602084013e61321b565b606091505b50509050809150509392505050565b60008060009054906101000a900473ffffffffffffffffffffffffffffffffffffffff169050816000806101000a81548173ffffffffffffffffffffffffffffffffffffffff021916908373ffffffffffffffffffffffffffffffffffffffff1602179055508173ffffffffffffffffffffffffffffffffffffffff168173ffffffffffffffffffffffffffffffffffffffff167f8be0079c531659141344cd1fd0a4f28419497f9722a3daafe3b4186f6b6457e060405160405180910390a35050565b6133028160016129cd90919063ffffffff16565b8073ffffffffffffffffffffffffffffffffffffffff167f6719d08c1888103bea251a4ed56406bd0c3e69723c8a1686e017e7bbe159b6f860405160405180910390a250565b8173ffffffffffffffffffffffffffffffffffffffff168373ffffffffffffffffffffffffffffffffffffffff1614156133b7576040517f08c379a00000000000000000000000000000000000000000000000000000000081526004016133ae906151fe565b60405180910390fd5b80600d60008573ffffffffffffffffffffffffffffffffffffffff1673ffffffffffffffffffffffffffffffffffffffff16815260200190815260200160002060008473ffffffffffffffffffffffffffffffffffffffff1673ffffffffffffffffffffffffffffffffffffffff16815260200190815260200160002060006101000a81548160ff0219169083151502179055508173ffffffffffffffffffffffffffffffffffffffff168373ffffffffffffffffffffffffffffffffffffffff167f17307eab39ab6107e8899845ad3d59bd9653f200f220920489ca2b5937696c31836040516134a891906139c9565b60405180910390a3505050565b6134c0848484612cee565b6134cc8484848461376a565b61350b576040517f08c379a000000000000000000000000000000000000000000000000000000000815260040161350290615290565b60405180910390fd5b50505050565b606060405180602001604052806000815250905090565b60606000821415613570576040518060400160405280600181526020017f30000000000000000000000000000000000000000000000000000000000000008152509050613684565b600082905060005b600082146135a257808061358b906152b0565b915050600a8261359b9190615328565b9150613578565b60008167ffffffffffffffff8111156135be576135bd613d8c565b5b6040519080825280601f01601f1916602001820160405280156135f05781602001600182028036833780820191505090505b5090505b6000851461367d5760018261360991906150ca565b9150600a856136189190615359565b603061362491906150fe565b60f81b81838151811061363a5761363961538a565b5b60200101907effffffffffffffffffffffffffffffffffffffffffffffffffffffffffffff1916908160001a905350600a856136769190615328565b94506135f4565b8093505050505b919050565b505050565b505050565b600081836136a191906153b9565b905092915050565b600081836136b79190615328565b905092915050565b600073ffffffffffffffffffffffffffffffffffffffff168173ffffffffffffffffffffffffffffffffffffffff1614156136f957600080fd5b6137038282612f55565b61370c57600080fd5b60008260000160008373ffffffffffffffffffffffffffffffffffffffff1673ffffffffffffffffffffffffffffffffffffffff16815260200190815260200160002060006101000a81548160ff0219169083151502179055505050565b600061378b8473ffffffffffffffffffffffffffffffffffffffff166138f2565b156138e5578373ffffffffffffffffffffffffffffffffffffffff1663150b7a026137b4612b4f565b8786866040518563ffffffff1660e01b81526004016137d6949392919061545d565b6020604051808303816000875af192505050801561381257506040513d601f19601f8201168201806040525081019061380f91906154be565b60015b613895573d8060008114613842576040519150601f19603f3d011682016040523d82523d6000602084013e613847565b606091505b5060008151141561388d576040517f08c379a000000000000000000000000000000000000000000000000000000000815260040161388490615290565b60405180910390fd5b805181602001fd5b63150b7a0260e01b7bffffffffffffffffffffffffffffffffffffffffffffffffffffffff1916817bffffffffffffffffffffffffffffffffffffffffffffffffffffffff1916149150506138ea565b600190505b949350505050565b6000808273ffffffffffffffffffffffffffffffffffffffff163b119050919050565b6000604051905090565b600080fd5b600080fd5b60007fffffffff0000000000000000000000000000000000000000000000000000000082169050919050565b61395e81613929565b811461396957600080fd5b50565b60008135905061397b81613955565b92915050565b6000602082840312156139975761399661391f565b5b60006139a58482850161396c565b91505092915050565b60008115159050919050565b6139c3816139ae565b82525050565b60006020820190506139de60008301846139ba565b92915050565b600081519050919050565b600082825260208201905092915050565b60005b83811015613a1e578082015181840152602081019050613a03565b83811115613a2d576000848401525b50505050565b6000601f19601f8301169050919050565b6000613a4f826139e4565b613a5981856139ef565b9350613a69818560208601613a00565b613a7281613a33565b840191505092915050565b60006020820190508181036000830152613a978184613a44565b905092915050565b6000819050919050565b613ab281613a9f565b8114613abd57600080fd5b50565b600081359050613acf81613aa9565b92915050565b600060208284031215613aeb57613aea61391f565b5b6000613af984828501613ac0565b91505092915050565b600073ffffffffffffffffffffffffffffffffffffffff82169050919050565b6000613b2d82613b02565b9050919050565b613b3d81613b22565b82525050565b6000602082019050613b586000830184613b34565b92915050565b613b6781613b22565b8114613b7257600080fd5b50565b600081359050613b8481613b5e565b92915050565b60008060408385031215613ba157613ba061391f565b5b6000613baf85828601613b75565b9250506020613bc085828601613ac0565b9150509250929050565b613bd381613a9f565b82525050565b6000602082019050613bee6000830184613bca565b92915050565b600080600060608486031215613c0d57613c0c61391f565b5b6000613c1b86828701613b75565b9350506020613c2c86828701613b75565b9250506040613c3d86828701613ac0565b9150509250925092565b600060208284031215613c5d57613c5c61391f565b5b6000613c6b84828501613b75565b91505092915050565b613c7d816139ae565b8114613c8857600080fd5b50565b600081359050613c9a81613c74565b92915050565b60008060408385031215613cb757613cb661391f565b5b6000613cc585828601613b75565b9250506020613cd685828601613c8b565b9150509250929050565b600080600080600080600060e0888a031215613cff57613cfe61391f565b5b6000613d0d8a828b01613ac0565b9750506020613d1e8a828b01613ac0565b9650506040613d2f8a828b01613ac0565b9550506060613d408a828b01613ac0565b9450506080613d518a828b01613ac0565b93505060a0613d628a828b01613ac0565b92505060c0613d738a828b01613b75565b91505092959891949750929550565b600080fd5b600080fd5b7f4e487b7100000000000000000000000000000000000000000000000000000000600052604160045260246000fd5b613dc482613a33565b810181811067ffffffffffffffff82111715613de357613de2613d8c565b5b80604052505050565b6000613df6613915565b9050613e028282613dbb565b919050565b600067ffffffffffffffff821115613e2257613e21613d8c565b5b613e2b82613a33565b9050602081019050919050565b82818337600083830152505050565b6000613e5a613e5584613e07565b613dec565b905082815260208101848484011115613e7657613e75613d87565b5b613e81848285613e38565b509392505050565b600082601f830112613e9e57613e9d613d82565b5b8135613eae848260208601613e47565b91505092915050565b60008060008060808587031215613ed157613ed061391f565b5b6000613edf87828801613b75565b9450506020613ef087828801613b75565b9350506040613f0187828801613ac0565b925050606085013567ffffffffffffffff811115613f2257613f21613924565b5b613f2e87828801613e89565b91505092959194509250565b600067ffffffffffffffff82169050919050565b613f5781613f3a565b82525050565b600063ffffffff82169050919050565b613f7681613f5d565b82525050565b600061016082019050613f92600083018e613bca565b613f9f602083018d613bca565b613fac604083018c613bca565b613fb9606083018b613bca565b613fc6608083018a613f4e565b613fd360a0830189613f6d565b613fe060c0830188613f6d565b613fed60e0830187613f6d565b613ffb610100830186613b34565b614009610120830185613b34565b6140176101408301846139ba565b9c9b505050505050505050505050565b6000806040838503121561403e5761403d61391f565b5b600061404c85828601613b75565b925050602061405d85828601613b75565b9150509250929050565b7f4e487b7100000000000000000000000000000000000000000000000000000000600052602260045260246000fd5b600060028204905060018216806140ae57607f821691505b602082108114156140c2576140c1614067565b5b50919050565b7f4552433732313a20617070726f76656420717565727920666f72206e6f6e657860008201527f697374656e7420746f6b656e0000000000000000000000000000000000000000602082015250565b6000614124602c836139ef565b915061412f826140c8565b604082019050919050565b6000602082019050818103600083015261415381614117565b9050919050565b7f4552433732313a20617070726f76616c20746f2063757272656e74206f776e6560008201527f7200000000000000000000000000000000000000000000000000000000000000602082015250565b60006141b66021836139ef565b91506141c18261415a565b604082019050919050565b600060208201905081810360008301526141e5816141a9565b9050919050565b7f4552433732313a20617070726f76652063616c6c6572206973206e6f74206f7760008201527f6e6572206e6f7220617070726f76656420666f7220616c6c0000000000000000602082015250565b60006142486038836139ef565b9150614253826141ec565b604082019050919050565b600060208201905081810360008301526142778161423b565b9050919050565b7f4552433732313a207472616e736665722063616c6c6572206973206e6f74206f60008201527f776e6572206e6f7220617070726f766564000000000000000000000000000000602082015250565b60006142da6031836139ef565b91506142e58261427e565b604082019050919050565b60006020820190508181036000830152614309816142cd565b9050919050565b7f5265656e7472616e637947756172643a207265656e7472616e742063616c6c00600082015250565b6000614346601f836139ef565b915061435182614310565b602082019050919050565b6000602082019050818103600083015261437581614339565b9050919050565b7f4f776e61626c653a2063616c6c6572206973206e6f7420746865206f776e6572600082015250565b60006143b26020836139ef565b91506143bd8261437c565b602082019050919050565b600060208201905081810360008301526143e1816143a5565b9050919050565b7f4c6f616e2068617320616c7265616479206265656e20726570616964206f722060008201527f6c69717569646174656400000000000000000000000000000000000000000000602082015250565b6000614444602a836139ef565b915061444f826143e8565b604082019050919050565b6000602082019050818103600083015261447381614437565b9050919050565b7f4c6f616e206973206e6f74206f76657264756520796574000000000000000000600082015250565b60006144b06017836139ef565b91506144bb8261447a565b602082019050919050565b600060208201905081810360008301526144df816144a3565b9050919050565b600060e0820190506144fb600083018a613bca565b6145086020830189613b34565b6145156040830188613bca565b6145226060830187613bca565b61452f6080830186613bca565b61453c60a0830185613bca565b61454960c0830184613b34565b98975050505050505050565b7f4552433732313a206f776e657220717565727920666f72206e6f6e657869737460008201527f656e7420746f6b656e0000000000000000000000000000000000000000000000602082015250565b60006145b16029836139ef565b91506145bc82614555565b604082019050919050565b600060208201905081810360008301526145e0816145a4565b9050919050565b7f4f6e6c792074686520626f72726f7765722063616e20706179206261636b206160008201527f206c6f616e20616e64207265636c61696d2074686520756e6465726c79696e6760208201527f204e465400000000000000000000000000000000000000000000000000000000604082015250565b60006146696044836139ef565b9150614674826145e7565b606082019050919050565b600060208201905081810360008301526146988161465c565b9050919050565b7f4e465420776173206e6f74207375636365737366756c6c79207472616e73666560008201527f7272656400000000000000000000000000000000000000000000000000000000602082015250565b60006146fb6024836139ef565b91506147068261469f565b604082019050919050565b6000602082019050818103600083015261472a816146ee565b9050919050565b7f4552433732313a2062616c616e636520717565727920666f7220746865207a6560008201527f726f206164647265737300000000000000000000000000000000000000000000602082015250565b600061478d602a836139ef565b915061479882614731565b604082019050919050565b600060208201905081810360008301526147bc81614780565b9050919050565b7f4e6567617469766520696e7465726573742072617465206c6f616e732061726560008201527f206e6f7420616c6c6f7765642e00000000000000000000000000000000000000602082015250565b600061481f602d836139ef565b915061482a826147c3565b604082019050919050565b6000602082019050818103600083015261484e81614812565b9050919050565b7f4c6f616e206475726174696f6e2065786365656473206d6178696d756d206c6f60008201527f616e206475726174696f6e000000000000000000000000000000000000000000602082015250565b60006148b1602b836139ef565b91506148bc82614855565b604082019050919050565b600060208201905081810360008301526148e0816148a4565b9050919050565b7f4c6f616e206475726174696f6e2063616e6e6f74206265207a65726f00000000600082015250565b600061491d601c836139ef565b9150614928826148e7565b602082019050919050565b6000602082019050818103600083015261494c81614910565b9050919050565b7f5468652061646d696e2066656520686173206368616e6765642073696e63652060008201527f74686973206f7264657220776173207369676e65642e00000000000000000000602082015250565b60006149af6036836139ef565b91506149ba82614953565b604082019050919050565b600060208201905081810360008301526149de816149a2565b9050919050565b7f4e465420636f6c6c61746572616c20636f6e7472616374206973206e6f74207760008201527f686974656c697374656420746f2062652075736564206279207468697320636f60208201527f6e74726163740000000000000000000000000000000000000000000000000000604082015250565b6000614a676046836139ef565b9150614a72826149e5565b606082019050919050565b60006020820190508181036000830152614a9681614a5a565b9050919050565b7f436f6e747261637420686173207265616368656420746865206d6178696d756d60008201527f206e756d626572206f6620616374697665206c6f616e7320616c6c6f7765642060208201527f62792061646d696e730000000000000000000000000000000000000000000000604082015250565b6000614b1f6049836139ef565b9150614b2a82614a9d565b606082019050919050565b60006020820190508181036000830152614b4e81614b12565b9050919050565b6000606082019050614b6a6000830186613b34565b614b776020830185613b34565b614b846040830184613bca565b949350505050565b6000819050919050565b6000614bb1614bac614ba784613f5d565b614b8c565b613a9f565b9050919050565b614bc181614b96565b82525050565b600061014082019050614bdd600083018d613bca565b614bea602083018c613b34565b614bf7604083018b613bca565b614c04606083018a613bca565b614c116080830189613bca565b614c1e60a0830188613bca565b614c2b60c0830187614bb8565b614c3860e0830186614bb8565b614c46610100830185613b34565b614c546101208301846139ba565b9b9a5050505050505050505050565b7f6c6f616e206475726174696f6e2063616e6e6f7420657863656564207370616360008201527f6520616c6f7474656420696e2073747275637400000000000000000000000000602082015250565b6000614cbf6033836139ef565b9150614cca82614c63565b604082019050919050565b60006020820190508181036000830152614cee81614cb2565b9050919050565b7f4552433732314d657461646174613a2055524920717565727920666f72206e6f60008201527f6e6578697374656e7420746f6b656e0000000000000000000000000000000000602082015250565b6000614d51602f836139ef565b9150614d5c82614cf5565b604082019050919050565b60006020820190508181036000830152614d8081614d44565b9050919050565b600081905092915050565b6000614d9d826139e4565b614da78185614d87565b9350614db7818560208601613a00565b80840191505092915050565b6000614dcf8285614d92565b9150614ddb8284614d92565b91508190509392505050565b7f426173697320706f696e74732063616e6e6f7420657863656564203130303030600082015250565b6000614e1d6020836139ef565b9150614e2882614de7565b602082019050919050565b60006020820190508181036000830152614e4c81614e10565b9050919050565b7f4f776e61626c653a206e6577206f776e657220697320746865207a65726f206160008201527f6464726573730000000000000000000000000000000000000000000000000000602082015250565b6000614eaf6026836139ef565b9150614eba82614e53565b604082019050919050565b60006020820190508181036000830152614ede81614ea2565b9050919050565b7f4552433732313a206f70657261746f7220717565727920666f72206e6f6e657860008201527f697374656e7420746f6b656e0000000000000000000000000000000000000000602082015250565b6000614f41602c836139ef565b9150614f4c82614ee5565b604082019050919050565b60006020820190508181036000830152614f7081614f34565b9050919050565b7f4552433732313a207472616e736665722066726f6d20696e636f72726563742060008201527f6f776e6572000000000000000000000000000000000000000000000000000000602082015250565b6000614fd36025836139ef565b9150614fde82614f77565b604082019050919050565b6000602082019050818103600083015261500281614fc6565b9050919050565b7f4552433732313a207472616e7366657220746f20746865207a65726f2061646460008201527f7265737300000000000000000000000000000000000000000000000000000000602082015250565b60006150656024836139ef565b915061507082615009565b604082019050919050565b6000602082019050818103600083015261509481615058565b9050919050565b7f4e487b7100000000000000000000000000000000000000000000000000000000600052601160045260246000fd5b60006150d582613a9f565b91506150e083613a9f565b9250828210156150f3576150f261509b565b5b828203905092915050565b600061510982613a9f565b915061511483613a9f565b9250827fffffffffffffffffffffffffffffffffffffffffffffffffffffffffffffffff038211156151495761514861509b565b5b828201905092915050565b600081519050919050565b600081905092915050565b600061517582615154565b61517f818561515f565b935061518f818560208601613a00565b80840191505092915050565b60006151a7828461516a565b915081905092915050565b7f4552433732313a20617070726f766520746f2063616c6c657200000000000000600082015250565b60006151e86019836139ef565b91506151f3826151b2565b602082019050919050565b60006020820190508181036000830152615217816151db565b9050919050565b7f4552433732313a207472616e7366657220746f206e6f6e20455243373231526560008201527f63656976657220696d706c656d656e7465720000000000000000000000000000602082015250565b600061527a6032836139ef565b91506152858261521e565b604082019050919050565b600060208201905081810360008301526152a98161526d565b9050919050565b60006152bb82613a9f565b91507fffffffffffffffffffffffffffffffffffffffffffffffffffffffffffffffff8214156152ee576152ed61509b565b5b600182019050919050565b7f4e487b7100000000000000000000000000000000000000000000000000000000600052601260045260246000fd5b600061533382613a9f565b915061533e83613a9f565b92508261534e5761534d6152f9565b5b828204905092915050565b600061536482613a9f565b915061536f83613a9f565b92508261537f5761537e6152f9565b5b828206905092915050565b7f4e487b7100000000000000000000000000000000000000000000000000000000600052603260045260246000fd5b60006153c482613a9f565b91506153cf83613a9f565b9250817fffffffffffffffffffffffffffffffffffffffffffffffffffffffffffffffff04831182151516156154085761540761509b565b5b828202905092915050565b600082825260208201905092915050565b600061542f82615154565b6154398185615413565b9350615449818560208601613a00565b61545281613a33565b840191505092915050565b60006080820190506154726000830187613b34565b61547f6020830186613b34565b61548c6040830185613bca565b818103606083015261549e8184615424565b905095945050505050565b6000815190506154b881613955565b92915050565b6000602082840312156154d4576154d361391f565b5b60006154e2848285016154a9565b9150509291505056fea26469706673582212200c30e6bc15705233d2d5541bad8662fca6e8fd0f2e817b162933fb3a25aa8c0f64736f6c634300080b0033",
  "linkReferences": {},
  "deployedLinkReferences": {}
}