{
	"_format": "hh-sol-artifact-1",
	"contractName": "ZinarLoans",
	"sourceName": "contracts/zinarLoan.sol",
	"abi": [
		{
			"inputs": [],
			"stateMutability": "payable",
			"type": "constructor"
		},
		{
			"anonymous": false,
			"inputs": [
				{
					"indexed": false,
					"internalType": "uint256",
					"name": "newAdminFee",
					"type": "uint256"
				}
			],
			"name": "AdminFeeUpdated",
			"type": "event"
		},
		{
			"anonymous": false,
			"inputs": [
				{
					"indexed": false,
					"internalType": "uint256",
					"name": "loanId",
					"type": "uint256"
				},
				{
					"indexed": false,
					"internalType": "address",
					"name": "borrower",
					"type": "address"
				},
				{
					"indexed": false,
					"internalType": "uint256",
					"name": "loanPrincipalAmount",
					"type": "uint256"
				},
				{
					"indexed": false,
					"internalType": "uint256",
					"name": "nftCollateralId",
					"type": "uint256"
				},
				{
					"indexed": false,
					"internalType": "uint256",
					"name": "loanMaturityDate",
					"type": "uint256"
				},
				{
					"indexed": false,
					"internalType": "uint256",
					"name": "loanLiquidationDate",
					"type": "uint256"
				},
				{
					"indexed": false,
					"internalType": "address",
					"name": "nftCollateralContract",
					"type": "address"
				}
			],
			"name": "LoanLiquidated",
			"type": "event"
		},
		{
			"anonymous": false,
			"inputs": [
				{
					"indexed": false,
					"internalType": "uint256",
					"name": "loanId",
					"type": "uint256"
				},
				{
					"indexed": false,
					"internalType": "address",
					"name": "borrower",
					"type": "address"
				},
				{
					"indexed": false,
					"internalType": "uint256",
					"name": "loanPrincipalAmount",
					"type": "uint256"
				},
				{
					"indexed": false,
					"internalType": "uint256",
					"name": "nftCollateralId",
					"type": "uint256"
				},
				{
					"indexed": false,
					"internalType": "uint256",
					"name": "amountPaidToLender",
					"type": "uint256"
				},
				{
					"indexed": false,
					"internalType": "uint256",
					"name": "adminFee",
					"type": "uint256"
				},
				{
					"indexed": false,
					"internalType": "address",
					"name": "nftCollateralContract",
					"type": "address"
				}
			],
			"name": "LoanRepaid",
			"type": "event"
		},
		{
			"anonymous": false,
			"inputs": [
				{
					"indexed": false,
					"internalType": "uint256",
					"name": "loanId",
					"type": "uint256"
				},
				{
					"indexed": false,
					"internalType": "address",
					"name": "borrower",
					"type": "address"
				},
				{
					"indexed": false,
					"internalType": "uint256",
					"name": "loanPrincipalAmount",
					"type": "uint256"
				},
				{
					"indexed": false,
					"internalType": "uint256",
					"name": "maximumRepaymentAmount",
					"type": "uint256"
				},
				{
					"indexed": false,
					"internalType": "uint256",
					"name": "nftCollateralId",
					"type": "uint256"
				},
				{
					"indexed": false,
					"internalType": "uint256",
					"name": "loanStartTime",
					"type": "uint256"
				},
				{
					"indexed": false,
					"internalType": "uint256",
					"name": "loanDuration",
					"type": "uint256"
				},
				{
					"indexed": false,
					"internalType": "uint256",
					"name": "loanInterestRateInBasisPoints",
					"type": "uint256"
				},
				{
					"indexed": false,
					"internalType": "address",
					"name": "nftCollateralContract",
					"type": "address"
				}
			],
			"name": "LoanStarted",
			"type": "event"
		},
		{
			"anonymous": false,
			"inputs": [
				{
					"indexed": true,
					"internalType": "address",
					"name": "previousOwner",
					"type": "address"
				},
				{
					"indexed": true,
					"internalType": "address",
					"name": "newOwner",
					"type": "address"
				}
			],
			"name": "OwnershipTransferred",
			"type": "event"
		},
		{
			"anonymous": false,
			"inputs": [
				{
					"indexed": false,
					"internalType": "address",
					"name": "account",
					"type": "address"
				}
			],
			"name": "Paused",
			"type": "event"
		},
		{
			"anonymous": false,
			"inputs": [
				{
					"indexed": true,
					"internalType": "address",
					"name": "account",
					"type": "address"
				}
			],
			"name": "PauserAdded",
			"type": "event"
		},
		{
			"anonymous": false,
			"inputs": [
				{
					"indexed": true,
					"internalType": "address",
					"name": "account",
					"type": "address"
				}
			],
			"name": "PauserRemoved",
			"type": "event"
		},
		{
			"anonymous": false,
			"inputs": [
				{
					"indexed": false,
					"internalType": "address",
					"name": "account",
					"type": "address"
				}
			],
			"name": "Unpaused",
			"type": "event"
		},
		{
			"inputs": [
				{
					"internalType": "address",
					"name": "account",
					"type": "address"
				}
			],
			"name": "addPauser",
			"outputs": [],
			"stateMutability": "nonpayable",
			"type": "function"
		},
		{
			"inputs": [],
			"name": "adminFeeInMatic",
			"outputs": [
				{
					"internalType": "uint256",
					"name": "",
					"type": "uint256"
				}
			],
			"stateMutability": "view",
			"type": "function"
		},
		{
			"inputs": [
				{
					"internalType": "uint256",
					"name": "_loanPrincipalAmount",
					"type": "uint256"
				},
				{
					"internalType": "uint256",
					"name": "_nftCollateralId",
					"type": "uint256"
				},
				{
					"internalType": "uint256",
					"name": "_loanInterestRateInBasisPoints",
					"type": "uint256"
				},
				{
					"internalType": "address",
					"name": "_nftCollateralContract",
					"type": "address"
				}
			],
			"name": "beginLoan",
			"outputs": [],
			"stateMutability": "payable",
			"type": "function"
		},
		{
			"inputs": [
				{
					"internalType": "uint256",
					"name": "_loanId",
					"type": "uint256"
				}
			],
			"name": "getPayoffAmount",
			"outputs": [
				{
					"internalType": "uint256",
					"name": "",
					"type": "uint256"
				}
			],
			"stateMutability": "view",
			"type": "function"
		},
		{
			"inputs": [],
			"name": "gracePeriod",
			"outputs": [
				{
					"internalType": "uint256",
					"name": "",
					"type": "uint256"
				}
			],
			"stateMutability": "view",
			"type": "function"
		},
		{
			"inputs": [
				{
					"internalType": "address",
					"name": "account",
					"type": "address"
				}
			],
			"name": "isPauser",
			"outputs": [
				{
					"internalType": "bool",
					"name": "",
					"type": "bool"
				}
			],
			"stateMutability": "view",
			"type": "function"
		},
		{
			"inputs": [
				{
					"internalType": "uint256",
					"name": "_loanId",
					"type": "uint256"
				}
			],
			"name": "liquidateOverdueLoan",
			"outputs": [],
			"stateMutability": "nonpayable",
			"type": "function"
		},
		{
			"inputs": [],
			"name": "loanDuration",
			"outputs": [
				{
					"internalType": "uint256",
					"name": "",
					"type": "uint256"
				}
			],
			"stateMutability": "view",
			"type": "function"
		},
		{
			"inputs": [
				{
					"internalType": "uint256",
					"name": "",
					"type": "uint256"
				}
			],
			"name": "loanIdToLoan",
			"outputs": [
				{
					"internalType": "uint256",
					"name": "loanId",
					"type": "uint256"
				},
				{
					"internalType": "uint256",
					"name": "loanPrincipalAmount",
					"type": "uint256"
				},
				{
					"internalType": "uint256",
					"name": "maximumRepaymentAmount",
					"type": "uint256"
				},
				{
					"internalType": "uint256",
					"name": "nftCollateralId",
					"type": "uint256"
				},
				{
					"internalType": "uint64",
					"name": "loanStartTime",
					"type": "uint64"
				},
				{
					"internalType": "uint32",
					"name": "loanDuration",
					"type": "uint32"
				},
				{
					"internalType": "uint32",
					"name": "loanInterestRateInBasisPoints",
					"type": "uint32"
				},
				{
					"internalType": "uint32",
					"name": "loanAdminFee",
					"type": "uint32"
				},
				{
					"internalType": "address",
					"name": "nftCollateralContract",
					"type": "address"
				},
				{
					"internalType": "address",
					"name": "borrower",
					"type": "address"
				}
			],
			"stateMutability": "view",
			"type": "function"
		},
		{
			"inputs": [
				{
					"internalType": "uint256",
					"name": "",
					"type": "uint256"
				}
			],
			"name": "loanRepaidOrLiquidated",
			"outputs": [
				{
					"internalType": "bool",
					"name": "",
					"type": "bool"
				}
			],
			"stateMutability": "view",
			"type": "function"
		},
		{
			"inputs": [],
			"name": "maximumNumberOfActiveLoans",
			"outputs": [
				{
					"internalType": "uint256",
					"name": "",
					"type": "uint256"
				}
			],
			"stateMutability": "view",
			"type": "function"
		},
		{
			"inputs": [
				{
					"internalType": "address",
					"name": "",
					"type": "address"
				}
			],
			"name": "nftContractIsWhitelisted",
			"outputs": [
				{
					"internalType": "bool",
					"name": "",
					"type": "bool"
				}
			],
			"stateMutability": "view",
			"type": "function"
		},
		{
			"inputs": [],
			"name": "owner",
			"outputs": [
				{
					"internalType": "address",
					"name": "",
					"type": "address"
				}
			],
			"stateMutability": "view",
			"type": "function"
		},
		{
			"inputs": [],
			"name": "pause",
			"outputs": [],
			"stateMutability": "nonpayable",
			"type": "function"
		},
		{
			"inputs": [],
			"name": "paused",
			"outputs": [
				{
					"internalType": "bool",
					"name": "",
					"type": "bool"
				}
			],
			"stateMutability": "view",
			"type": "function"
		},
		{
			"inputs": [
				{
					"internalType": "uint256",
					"name": "_loanId",
					"type": "uint256"
				}
			],
			"name": "payBackLoan",
			"outputs": [],
			"stateMutability": "payable",
			"type": "function"
		},
		{
			"inputs": [],
			"name": "renounceOwnership",
			"outputs": [],
			"stateMutability": "nonpayable",
			"type": "function"
		},
		{
			"inputs": [],
			"name": "renouncePauser",
			"outputs": [],
			"stateMutability": "nonpayable",
			"type": "function"
		},
		{
			"inputs": [],
			"name": "totalActiveLoans",
			"outputs": [
				{
					"internalType": "uint256",
					"name": "",
					"type": "uint256"
				}
			],
			"stateMutability": "view",
			"type": "function"
		},
		{
			"inputs": [],
			"name": "totalNumLoans",
			"outputs": [
				{
					"internalType": "uint256",
					"name": "",
					"type": "uint256"
				}
			],
			"stateMutability": "view",
			"type": "function"
		},
		{
			"inputs": [
				{
					"internalType": "address",
					"name": "_nftContract",
					"type": "address"
				},
				{
					"internalType": "uint256",
					"name": "_nftId",
					"type": "uint256"
				},
				{
					"internalType": "address",
					"name": "_recipient",
					"type": "address"
				}
			],
			"name": "transferNftToAddress",
			"outputs": [],
			"stateMutability": "nonpayable",
			"type": "function"
		},
		{
			"inputs": [
				{
					"internalType": "address",
					"name": "newOwner",
					"type": "address"
				}
			],
			"name": "transferOwnership",
			"outputs": [],
			"stateMutability": "nonpayable",
			"type": "function"
		},
		{
			"inputs": [],
			"name": "unpause",
			"outputs": [],
			"stateMutability": "nonpayable",
			"type": "function"
		},
		{
			"inputs": [
				{
					"internalType": "uint256",
					"name": "_newAdminFeeInMatic",
					"type": "uint256"
				}
			],
			"name": "updateAdminFee",
			"outputs": [],
			"stateMutability": "nonpayable",
			"type": "function"
		},
		{
			"inputs": [
				{
					"internalType": "uint256",
					"name": "_newLoanDuration",
					"type": "uint256"
				}
			],
			"name": "updateLoanDuration",
			"outputs": [],
			"stateMutability": "nonpayable",
			"type": "function"
		},
		{
			"inputs": [
				{
					"internalType": "uint256",
					"name": "_newMaximumNumberOfActiveLoans",
					"type": "uint256"
				}
			],
			"name": "updateMaximumNumberOfActiveLoans",
			"outputs": [],
			"stateMutability": "nonpayable",
			"type": "function"
		},
		{
			"inputs": [
				{
					"internalType": "address",
					"name": "_nftContract",
					"type": "address"
				},
				{
					"internalType": "bool",
					"name": "_setAsWhitelisted",
					"type": "bool"
				}
			],
			"name": "whitelistNFTContract",
			"outputs": [],
			"stateMutability": "nonpayable",
			"type": "function"
		},
		{
			"inputs": [
				{
					"internalType": "uint256",
					"name": "_amount",
					"type": "uint256"
				}
			],
			"name": "withdraw",
			"outputs": [],
			"stateMutability": "payable",
			"type": "function"
		},
		{
			"inputs": [],
			"name": "zinar05InterestRate",
			"outputs": [
				{
					"internalType": "uint256",
					"name": "",
					"type": "uint256"
				}
			],
			"stateMutability": "view",
			"type": "function"
		},
		{
			"inputs": [],
			"name": "zinar10InterestRate",
			"outputs": [
				{
					"internalType": "uint256",
					"name": "",
					"type": "uint256"
				}
			],
			"stateMutability": "view",
			"type": "function"
		},
		{
			"inputs": [],
			"name": "zinar1InterestRate",
			"outputs": [
				{
					"internalType": "uint256",
					"name": "",
					"type": "uint256"
				}
			],
			"stateMutability": "view",
			"type": "function"
		},
		{
			"inputs": [],
			"name": "zinar2InterestRate",
			"outputs": [
				{
					"internalType": "uint256",
					"name": "",
					"type": "uint256"
				}
			],
			"stateMutability": "view",
			"type": "function"
		},
		{
			"inputs": [],
			"name": "zinar5InterestRate",
			"outputs": [
				{
					"internalType": "uint256",
					"name": "",
					"type": "uint256"
				}
			],
			"stateMutability": "view",
			"type": "function"
		},
		{
			"stateMutability": "payable",
			"type": "receive"
		}
	],
	"bytecode": "0x6080604052610384600a55610384600b556103e8600c5566b1a2bc2ec50000600d556000600e556000600f556200004b6200003f620000f160201b60201c565b620000f960201b60201c565b6200005c33620001bd60201b60201c565b6000600260006101000a81548160ff021916908315150217905550600160038190555060016004600073f17b66b416a3d9a0d6f2f3f9e713d8735dd29b1373ffffffffffffffffffffffffffffffffffffffff1673ffffffffffffffffffffffffffffffffffffffff16815260200190815260200160002060006101000a81548160ff02191690831515021790555062000367565b600033905090565b60008060009054906101000a900473ffffffffffffffffffffffffffffffffffffffff169050816000806101000a81548173ffffffffffffffffffffffffffffffffffffffff021916908373ffffffffffffffffffffffffffffffffffffffff1602179055508173ffffffffffffffffffffffffffffffffffffffff168173ffffffffffffffffffffffffffffffffffffffff167f8be0079c531659141344cd1fd0a4f28419497f9722a3daafe3b4186f6b6457e060405160405180910390a35050565b620001d88160016200021e60201b620022e81790919060201c565b8073ffffffffffffffffffffffffffffffffffffffff167f6719d08c1888103bea251a4ed56406bd0c3e69723c8a1686e017e7bbe159b6f860405160405180910390a250565b600073ffffffffffffffffffffffffffffffffffffffff168173ffffffffffffffffffffffffffffffffffffffff1614156200025957600080fd5b6200026b8282620002d460201b60201c565b156200027657600080fd5b60018260000160008373ffffffffffffffffffffffffffffffffffffffff1673ffffffffffffffffffffffffffffffffffffffff16815260200190815260200160002060006101000a81548160ff0219169083151502179055505050565b60008073ffffffffffffffffffffffffffffffffffffffff168273ffffffffffffffffffffffffffffffffffffffff1614156200031057600080fd5b8260000160008373ffffffffffffffffffffffffffffffffffffffff1673ffffffffffffffffffffffffffffffffffffffff16815260200190815260200160002060009054906101000a900460ff16905092915050565b61396480620003776000396000f3fe6080604052600436106101f25760003560e01c8063715018a61161010d578063ba43a922116100a0578063dc63af411161006f578063dc63af411461068a578063ea46b246146106b5578063eaccaf65146106e0578063f2fde38b1461070b578063f5521bf114610734576101f9565b8063ba43a922146105c7578063c81bd7a6146105f0578063cff1b6ef14610636578063d4f823261461065f576101f9565b806393ea5f80116100dc57806393ea5f801461052c578063a06db7dc14610548578063adf3053314610573578063b9e539001461059e576101f9565b8063715018a6146104aa57806382dc1ec4146104c15780638456cb59146104ea5780638da5cb5b14610501576101f9565b806351d0908c11610185578063643f6e3211610154578063643f6e321461041157806365ab6a081461043a5780636ef8d66d146104775780636faa8b3f1461048e576101f9565b806351d0908c146103555780635794fefc146103925780635c975abb146103bd57806361851d65146103e8576101f9565b80632e1a7d4d116101c15780632e1a7d4d146102ba5780633f4ba83a146102d657806346fbf68e146102ed5780634be890b21461032a576101f9565b80630d9476ff146101fe5780631af9a89a1461023b5780631e91b1db1461026457806322a888301461028f576101f9565b366101f957005b600080fd5b34801561020a57600080fd5b5061022560048036038101906102209190612870565b61075f565b60405161023291906128b8565b60405180910390f35b34801561024757600080fd5b50610262600480360381019061025d9190612931565b61077f565b005b34801561027057600080fd5b5061027961080c565b6040516102869190612993565b60405180910390f35b34801561029b57600080fd5b506102a4610812565b6040516102b19190612993565b60405180910390f35b6102d460048036038101906102cf9190612870565b610818565b005b3480156102e257600080fd5b506102eb61092e565b005b3480156102f957600080fd5b50610314600480360381019061030f91906129ae565b6109ad565b60405161032191906128b8565b60405180910390f35b34801561033657600080fd5b5061033f6109ca565b60405161034c9190612993565b60405180910390f35b34801561036157600080fd5b5061037c600480360381019061037791906129ae565b6109d0565b60405161038991906128b8565b60405180910390f35b34801561039e57600080fd5b506103a76109f0565b6040516103b49190612993565b60405180910390f35b3480156103c957600080fd5b506103d26109f6565b6040516103df91906128b8565b60405180910390f35b3480156103f457600080fd5b5061040f600480360381019061040a9190612870565b610a0d565b005b34801561041d57600080fd5b5061043860048036038101906104339190612870565b610ee6565b005b34801561044657600080fd5b50610461600480360381019061045c9190612870565b610f6c565b60405161046e9190612993565b60405180910390f35b34801561048357600080fd5b5061048c61102b565b005b6104a860048036038101906104a39190612870565b611036565b005b3480156104b657600080fd5b506104bf6116b5565b005b3480156104cd57600080fd5b506104e860048036038101906104e391906129ae565b61173d565b005b3480156104f657600080fd5b506104ff61175b565b005b34801561050d57600080fd5b506105166117db565b60405161052391906129ea565b60405180910390f35b61054660048036038101906105419190612a05565b611804565b005b34801561055457600080fd5b5061055d611e89565b60405161056a9190612993565b60405180910390f35b34801561057f57600080fd5b50610588611e8f565b6040516105959190612993565b60405180910390f35b3480156105aa57600080fd5b506105c560048036038101906105c09190612a98565b611e95565b005b3480156105d357600080fd5b506105ee60048036038101906105e99190612870565b611f6c565b005b3480156105fc57600080fd5b5061061760048036038101906106129190612870565b61203d565b60405161062d9a99989796959493929190612b1a565b60405180910390f35b34801561064257600080fd5b5061065d60048036038101906106589190612870565b612115565b005b34801561066b57600080fd5b506106746121d2565b6040516106819190612993565b60405180910390f35b34801561069657600080fd5b5061069f6121d8565b6040516106ac9190612993565b60405180910390f35b3480156106c157600080fd5b506106ca6121de565b6040516106d79190612993565b60405180910390f35b3480156106ec57600080fd5b506106f56121e4565b6040516107029190612993565b60405180910390f35b34801561071757600080fd5b50610732600480360381019061072d91906129ae565b6121ea565b005b34801561074057600080fd5b506107496122e2565b6040516107569190612993565b60405180910390f35b60116020528060005260406000206000915054906101000a900460ff1681565b610787612394565b73ffffffffffffffffffffffffffffffffffffffff166107a56117db565b73ffffffffffffffffffffffffffffffffffffffff16146107fb576040517f08c379a00000000000000000000000000000000000000000000000000000000081526004016107f290612c13565b60405180910390fd5b61080683838361239c565b50505050565b600d5481565b60055481565b610820612394565b73ffffffffffffffffffffffffffffffffffffffff1661083e6117db565b73ffffffffffffffffffffffffffffffffffffffff1614610894576040517f08c379a000000000000000000000000000000000000000000000000000000000815260040161088b90612c13565b60405180910390fd5b6000479050600081116108dc576040517f08c379a00000000000000000000000000000000000000000000000000000000081526004016108d390612c7f565b60405180910390fd5b6108e46117db565b73ffffffffffffffffffffffffffffffffffffffff166108fc839081150290604051600060405180830381858888f19350505050158015610929573d6000803e3d6000fd5b505050565b610937336109ad565b61094057600080fd5b600260009054906101000a900460ff1661095957600080fd5b6000600260006101000a81548160ff0219169083151502179055507f5db9ee0a495bf2e6ff9c91a7834c1ba4fdd244a5e8aa4e537bd38aeae4b073aa336040516109a391906129ea565b60405180910390a1565b60006109c382600161248e90919063ffffffff16565b9050919050565b60065481565b60046020528060005260406000206000915054906101000a900460ff1681565b600e5481565b6000600260009054906101000a900460ff16905090565b60026003541415610a53576040517f08c379a0000000000000000000000000000000000000000000000000000000008152600401610a4a90612ceb565b60405180910390fd5b6002600381905550610a63612394565b73ffffffffffffffffffffffffffffffffffffffff16610a816117db565b73ffffffffffffffffffffffffffffffffffffffff1614610ad7576040517f08c379a0000000000000000000000000000000000000000000000000000000008152600401610ace90612c13565b60405180910390fd5b6011600082815260200190815260200160002060009054906101000a900460ff1615610b38576040517f08c379a0000000000000000000000000000000000000000000000000000000008152600401610b2f90612d7d565b60405180910390fd5b60006010600083815260200190815260200160002060405180610140016040529081600082015481526020016001820154815260200160028201548152602001600382015481526020016004820160009054906101000a900467ffffffffffffffff1667ffffffffffffffff1667ffffffffffffffff1681526020016004820160089054906101000a900463ffffffff1663ffffffff1663ffffffff16815260200160048201600c9054906101000a900463ffffffff1663ffffffff1663ffffffff1681526020016004820160109054906101000a900463ffffffff1663ffffffff1663ffffffff1681526020016005820160009054906101000a900473ffffffffffffffffffffffffffffffffffffffff1673ffffffffffffffffffffffffffffffffffffffff1673ffffffffffffffffffffffffffffffffffffffff1681526020016006820160009054906101000a900473ffffffffffffffffffffffffffffffffffffffff1673ffffffffffffffffffffffffffffffffffffffff1673ffffffffffffffffffffffffffffffffffffffff168152505090506000610d14610cf7600b548460a0015163ffffffff1661252090919063ffffffff16565b836080015167ffffffffffffffff1661252090919063ffffffff16565b9050804211610d58576040517f08c379a0000000000000000000000000000000000000000000000000000000008152600401610d4f90612de9565b60405180910390fd5b60016011600085815260200190815260200160002060006101000a81548160ff021916908315150217905550610d9a6001600f5461253690919063ffffffff16565b600f819055507fefc46a9ca424dc47d16f7a49e70ccf96db649fc6c7e15efb3d890b583524567483836101200151846020015185606001518542886101000151604051610ded9796959493929190612e09565b60405180910390a1601060008481526020019081526020016000206000808201600090556001820160009055600282016000905560038201600090556004820160006101000a81549067ffffffffffffffff02191690556004820160086101000a81549063ffffffff021916905560048201600c6101000a81549063ffffffff02191690556004820160106101000a81549063ffffffff02191690556005820160006101000a81549073ffffffffffffffffffffffffffffffffffffffff02191690556006820160006101000a81549073ffffffffffffffffffffffffffffffffffffffff021916905550505050600160038190555050565b610eee612394565b73ffffffffffffffffffffffffffffffffffffffff16610f0c6117db565b73ffffffffffffffffffffffffffffffffffffffff1614610f62576040517f08c379a0000000000000000000000000000000000000000000000000000000008152600401610f5990612c13565b60405180910390fd5b80600c8190555050565b6000806010600084815260200190815260200160002090506000610fbb8260040160009054906101000a900467ffffffffffffffff1667ffffffffffffffff164261253690919063ffffffff16565b9050600061100883600101548460020154848660040160089054906101000a900463ffffffff1663ffffffff1687600401600c9054906101000a900463ffffffff1663ffffffff1661254c565b905061102181846001015461252090919063ffffffff16565b9350505050919050565b611034336125e6565b565b6002600354141561107c576040517f08c379a000000000000000000000000000000000000000000000000000000000815260040161107390612ceb565b60405180910390fd5b600260038190555060006010600083815260200190815260200160002060405180610140016040529081600082015481526020016001820154815260200160028201548152602001600382015481526020016004820160009054906101000a900467ffffffffffffffff1667ffffffffffffffff1667ffffffffffffffff1681526020016004820160089054906101000a900463ffffffff1663ffffffff1663ffffffff16815260200160048201600c9054906101000a900463ffffffff1663ffffffff1663ffffffff1681526020016004820160109054906101000a900463ffffffff1663ffffffff1663ffffffff1681526020016005820160009054906101000a900473ffffffffffffffffffffffffffffffffffffffff1673ffffffffffffffffffffffffffffffffffffffff1673ffffffffffffffffffffffffffffffffffffffff1681526020016006820160009054906101000a900473ffffffffffffffffffffffffffffffffffffffff1673ffffffffffffffffffffffffffffffffffffffff1673ffffffffffffffffffffffffffffffffffffffff168152505090506000611260611243600b548460a0015163ffffffff1661252090919063ffffffff16565b836080015167ffffffffffffffff1661252090919063ffffffff16565b9050600061128f8360a0015163ffffffff16846080015167ffffffffffffffff1661252090919063ffffffff16565b90506011600085815260200190815260200160002060009054906101000a900460ff16156112f2576040517f08c379a00000000000000000000000000000000000000000000000000000000081526004016112e990612d7d565b60405180910390fd5b80421015611335576040517f08c379a000000000000000000000000000000000000000000000000000000000815260040161132c90612ec4565b60405180910390fd5b814210611377576040517f08c379a000000000000000000000000000000000000000000000000000000000815260040161136e90612f30565b60405180910390fd5b82610120015173ffffffffffffffffffffffffffffffffffffffff163373ffffffffffffffffffffffffffffffffffffffff16146113ea576040517f08c379a00000000000000000000000000000000000000000000000000000000081526004016113e190612fe8565b60405180910390fd5b60006114078460200151856040015161253690919063ffffffff16565b9050600061142282866020015161252090919063ffffffff16565b9050600061143b600d548361252090919063ffffffff16565b905080341015611480576040517f08c379a00000000000000000000000000000000000000000000000000000000081526004016114779061307a565b60405180910390fd5b60016011600089815260200190815260200160002060006101000a81548160ff0219169083151502179055506114c26001600f5461253690919063ffffffff16565b600f819055503073ffffffffffffffffffffffffffffffffffffffff166108fc829081150290604051600060405180830381858888f1935050505015801561150e573d6000803e3d6000fd5b50611528866101000151876060015188610120015161239c565b611567576040517f08c379a000000000000000000000000000000000000000000000000000000000815260040161155e9061310c565b60405180910390fd5b7f03601f488bba66af827cd1b5a040eb13124ce13481aa4e221c010689f87015128787610120015188602001518960600151868b60e001518c61010001516040516115b89796959493929190613167565b60405180910390a1601060008881526020019081526020016000206000808201600090556001820160009055600282016000905560038201600090556004820160006101000a81549067ffffffffffffffff02191690556004820160086101000a81549063ffffffff021916905560048201600c6101000a81549063ffffffff02191690556004820160106101000a81549063ffffffff02191690556005820160006101000a81549073ffffffffffffffffffffffffffffffffffffffff02191690556006820160006101000a81549073ffffffffffffffffffffffffffffffffffffffff02191690555050505050505050600160038190555050565b6116bd612394565b73ffffffffffffffffffffffffffffffffffffffff166116db6117db565b73ffffffffffffffffffffffffffffffffffffffff1614611731576040517f08c379a000000000000000000000000000000000000000000000000000000000815260040161172890612c13565b60405180910390fd5b61173b6000612640565b565b611746336109ad565b61174f57600080fd5b61175881612704565b50565b611764336109ad565b61176d57600080fd5b600260009054906101000a900460ff161561178757600080fd5b6001600260006101000a81548160ff0219169083151502179055507f62e78cea01bee320cd4e420270b5ea74000d11b0c9f74754ebdbfc544b05a258336040516117d191906129ea565b60405180910390a1565b60008060009054906101000a900473ffffffffffffffffffffffffffffffffffffffff16905090565b600260009054906101000a900460ff161561181e57600080fd5b60026003541415611864576040517f08c379a000000000000000000000000000000000000000000000000000000000815260040161185b90612ceb565b60405180910390fd5b60026003819055506000611895612710611887858861275e90919063ffffffff16565b61277490919063ffffffff16565b905060006118ac828761252090919063ffffffff16565b90506118c46001600e5461252090919063ffffffff16565b600e819055506000604051806101400160405280600e5481526020018881526020018381526020018781526020014267ffffffffffffffff168152602001600a5463ffffffff1681526020018663ffffffff168152602001600d5463ffffffff1681526020018573ffffffffffffffffffffffffffffffffffffffff1681526020013373ffffffffffffffffffffffffffffffffffffffff1681525090508060200151816040015110156119ad576040517f08c379a00000000000000000000000000000000000000000000000000000000081526004016119a490613248565b60405180910390fd5b600a548160a0015163ffffffff1611156119fc576040517f08c379a00000000000000000000000000000000000000000000000000000000081526004016119f3906132da565b60405180910390fd5b60008160a0015163ffffffff161415611a4a576040517f08c379a0000000000000000000000000000000000000000000000000000000008152600401611a4190613346565b60405180910390fd5b8060e0015163ffffffff16341015611a97576040517f08c379a0000000000000000000000000000000000000000000000000000000008152600401611a8e906133b2565b60405180910390fd5b6004600082610100015173ffffffffffffffffffffffffffffffffffffffff1673ffffffffffffffffffffffffffffffffffffffff16815260200190815260200160002060009054906101000a900460ff16611b28576040517f08c379a0000000000000000000000000000000000000000000000000000000008152600401611b1f9061346a565b60405180910390fd5b8060106000600e5481526020019081526020016000206000820151816000015560208201518160010155604082015181600201556060820151816003015560808201518160040160006101000a81548167ffffffffffffffff021916908367ffffffffffffffff16021790555060a08201518160040160086101000a81548163ffffffff021916908363ffffffff16021790555060c082015181600401600c6101000a81548163ffffffff021916908363ffffffff16021790555060e08201518160040160106101000a81548163ffffffff021916908363ffffffff1602179055506101008201518160050160006101000a81548173ffffffffffffffffffffffffffffffffffffffff021916908373ffffffffffffffffffffffffffffffffffffffff1602179055506101208201518160060160006101000a81548173ffffffffffffffffffffffffffffffffffffffff021916908373ffffffffffffffffffffffffffffffffffffffff160217905550905050611cb36001600f5461252090919063ffffffff16565b600f81905550600c54600f541115611d00576040517f08c379a0000000000000000000000000000000000000000000000000000000008152600401611cf790613522565b60405180910390fd5b80610100015173ffffffffffffffffffffffffffffffffffffffff166323b872dd333084606001516040518463ffffffff1660e01b8152600401611d4693929190613542565b600060405180830381600087803b158015611d6057600080fd5b505af1158015611d74573d6000803e3d6000fd5b505050503073ffffffffffffffffffffffffffffffffffffffff166108fc8260e0015163ffffffff169081150290604051600060405180830381858888f19350505050158015611dc8573d6000803e3d6000fd5b503373ffffffffffffffffffffffffffffffffffffffff166108fc82602001519081150290604051600060405180830381858888f19350505050158015611e13573d6000803e3d6000fd5b507f4d617a5f7cf919c577db8a75abdfaeef4f43db067e7d06140e5c734f62b9cee2816000015133836020015184604001518560600151428760a001518860c00151896101000151604051611e7099989796959493929190613579565b60405180910390a1505050600160038190555050505050565b600b5481565b60075481565b611e9d612394565b73ffffffffffffffffffffffffffffffffffffffff16611ebb6117db565b73ffffffffffffffffffffffffffffffffffffffff1614611f11576040517f08c379a0000000000000000000000000000000000000000000000000000000008152600401611f0890612c13565b60405180910390fd5b80600460008473ffffffffffffffffffffffffffffffffffffffff1673ffffffffffffffffffffffffffffffffffffffff16815260200190815260200160002060006101000a81548160ff0219169083151502179055505050565b611f74612394565b73ffffffffffffffffffffffffffffffffffffffff16611f926117db565b73ffffffffffffffffffffffffffffffffffffffff1614611fe8576040517f08c379a0000000000000000000000000000000000000000000000000000000008152600401611fdf90612c13565b60405180910390fd5b60001963ffffffff16811115612033576040517f08c379a000000000000000000000000000000000000000000000000000000000815260040161202a90613678565b60405180910390fd5b80600a8190555050565b60106020528060005260406000206000915090508060000154908060010154908060020154908060030154908060040160009054906101000a900467ffffffffffffffff16908060040160089054906101000a900463ffffffff169080600401600c9054906101000a900463ffffffff16908060040160109054906101000a900463ffffffff16908060050160009054906101000a900473ffffffffffffffffffffffffffffffffffffffff16908060060160009054906101000a900473ffffffffffffffffffffffffffffffffffffffff1690508a565b61211d612394565b73ffffffffffffffffffffffffffffffffffffffff1661213b6117db565b73ffffffffffffffffffffffffffffffffffffffff1614612191576040517f08c379a000000000000000000000000000000000000000000000000000000000815260040161218890612c13565b60405180910390fd5b80600d819055507f36a705a6c19db3ef2d8bf55ca55188c8499831bdf4fb8cd76fc1cf98b740bd27816040516121c79190612993565b60405180910390a150565b60085481565b600f5481565b60095481565b600c5481565b6121f2612394565b73ffffffffffffffffffffffffffffffffffffffff166122106117db565b73ffffffffffffffffffffffffffffffffffffffff1614612266576040517f08c379a000000000000000000000000000000000000000000000000000000000815260040161225d90612c13565b60405180910390fd5b600073ffffffffffffffffffffffffffffffffffffffff168173ffffffffffffffffffffffffffffffffffffffff1614156122d6576040517f08c379a00000000000000000000000000000000000000000000000000000000081526004016122cd9061370a565b60405180910390fd5b6122df81612640565b50565b600a5481565b600073ffffffffffffffffffffffffffffffffffffffff168173ffffffffffffffffffffffffffffffffffffffff16141561232257600080fd5b61232c828261248e565b1561233657600080fd5b60018260000160008373ffffffffffffffffffffffffffffffffffffffff1673ffffffffffffffffffffffffffffffffffffffff16815260200190815260200160002060006101000a81548160ff0219169083151502179055505050565b600033905090565b6000808473ffffffffffffffffffffffffffffffffffffffff166323b872dd60e01b3085876040516024016123d393929190613542565b604051602081830303815290604052907bffffffffffffffffffffffffffffffffffffffffffffffffffffffff19166020820180517bffffffffffffffffffffffffffffffffffffffffffffffffffffffff838183161783525050505060405161243d91906137a4565b6000604051808303816000865af19150503d806000811461247a576040519150601f19603f3d011682016040523d82523d6000602084013e61247f565b606091505b50509050809150509392505050565b60008073ffffffffffffffffffffffffffffffffffffffff168273ffffffffffffffffffffffffffffffffffffffff1614156124c957600080fd5b8260000160008373ffffffffffffffffffffffffffffffffffffffff1673ffffffffffffffffffffffffffffffffffffffff16815260200190815260200160002060009054906101000a900460ff16905092915050565b6000818361252e91906137ea565b905092915050565b600081836125449190613840565b905092915050565b600080612576612710612568858a61275e90919063ffffffff16565b61277490919063ffffffff16565b9050600061259f85612591888561275e90919063ffffffff16565b61277490919063ffffffff16565b9050866125b5828a61252090919063ffffffff16565b11156125d7576125ce888861253690919063ffffffff16565b925050506125dd565b80925050505b95945050505050565b6125fa81600161278a90919063ffffffff16565b8073ffffffffffffffffffffffffffffffffffffffff167fcd265ebaf09df2871cc7bd4133404a235ba12eff2041bb89d9c714a2621c7c7e60405160405180910390a250565b60008060009054906101000a900473ffffffffffffffffffffffffffffffffffffffff169050816000806101000a81548173ffffffffffffffffffffffffffffffffffffffff021916908373ffffffffffffffffffffffffffffffffffffffff1602179055508173ffffffffffffffffffffffffffffffffffffffff168173ffffffffffffffffffffffffffffffffffffffff167f8be0079c531659141344cd1fd0a4f28419497f9722a3daafe3b4186f6b6457e060405160405180910390a35050565b6127188160016122e890919063ffffffff16565b8073ffffffffffffffffffffffffffffffffffffffff167f6719d08c1888103bea251a4ed56406bd0c3e69723c8a1686e017e7bbe159b6f860405160405180910390a250565b6000818361276c9190613874565b905092915050565b6000818361278291906138fd565b905092915050565b600073ffffffffffffffffffffffffffffffffffffffff168173ffffffffffffffffffffffffffffffffffffffff1614156127c457600080fd5b6127ce828261248e565b6127d757600080fd5b60008260000160008373ffffffffffffffffffffffffffffffffffffffff1673ffffffffffffffffffffffffffffffffffffffff16815260200190815260200160002060006101000a81548160ff0219169083151502179055505050565b600080fd5b6000819050919050565b61284d8161283a565b811461285857600080fd5b50565b60008135905061286a81612844565b92915050565b60006020828403121561288657612885612835565b5b60006128948482850161285b565b91505092915050565b60008115159050919050565b6128b28161289d565b82525050565b60006020820190506128cd60008301846128a9565b92915050565b600073ffffffffffffffffffffffffffffffffffffffff82169050919050565b60006128fe826128d3565b9050919050565b61290e816128f3565b811461291957600080fd5b50565b60008135905061292b81612905565b92915050565b60008060006060848603121561294a57612949612835565b5b60006129588682870161291c565b93505060206129698682870161285b565b925050604061297a8682870161291c565b9150509250925092565b61298d8161283a565b82525050565b60006020820190506129a86000830184612984565b92915050565b6000602082840312156129c4576129c3612835565b5b60006129d28482850161291c565b91505092915050565b6129e4816128f3565b82525050565b60006020820190506129ff60008301846129db565b92915050565b60008060008060808587031215612a1f57612a1e612835565b5b6000612a2d8782880161285b565b9450506020612a3e8782880161285b565b9350506040612a4f8782880161285b565b9250506060612a608782880161291c565b91505092959194509250565b612a758161289d565b8114612a8057600080fd5b50565b600081359050612a9281612a6c565b92915050565b60008060408385031215612aaf57612aae612835565b5b6000612abd8582860161291c565b9250506020612ace85828601612a83565b9150509250929050565b600067ffffffffffffffff82169050919050565b612af581612ad8565b82525050565b600063ffffffff82169050919050565b612b1481612afb565b82525050565b600061014082019050612b30600083018d612984565b612b3d602083018c612984565b612b4a604083018b612984565b612b57606083018a612984565b612b646080830189612aec565b612b7160a0830188612b0b565b612b7e60c0830187612b0b565b612b8b60e0830186612b0b565b612b996101008301856129db565b612ba76101208301846129db565b9b9a5050505050505050505050565b600082825260208201905092915050565b7f4f776e61626c653a2063616c6c6572206973206e6f7420746865206f776e6572600082015250565b6000612bfd602083612bb6565b9150612c0882612bc7565b602082019050919050565b60006020820190508181036000830152612c2c81612bf0565b9050919050565b7f42616c616e63652073686f756c64206265206d6f7265207468656e207a65726f600082015250565b6000612c69602083612bb6565b9150612c7482612c33565b602082019050919050565b60006020820190508181036000830152612c9881612c5c565b9050919050565b7f5265656e7472616e637947756172643a207265656e7472616e742063616c6c00600082015250565b6000612cd5601f83612bb6565b9150612ce082612c9f565b602082019050919050565b60006020820190508181036000830152612d0481612cc8565b9050919050565b7f4c6f616e2068617320616c7265616479206265656e20726570616964206f722060008201527f6c69717569646174656400000000000000000000000000000000000000000000602082015250565b6000612d67602a83612bb6565b9150612d7282612d0b565b604082019050919050565b60006020820190508181036000830152612d9681612d5a565b9050919050565b7f4c6f616e206973206e6f74206f76657264756520796574000000000000000000600082015250565b6000612dd3601783612bb6565b9150612dde82612d9d565b602082019050919050565b60006020820190508181036000830152612e0281612dc6565b9050919050565b600060e082019050612e1e600083018a612984565b612e2b60208301896129db565b612e386040830188612984565b612e456060830187612984565b612e526080830186612984565b612e5f60a0830185612984565b612e6c60c08301846129db565b98975050505050505050565b7f4c6f616e206e6f7420796574206d617475726500000000000000000000000000600082015250565b6000612eae601383612bb6565b9150612eb982612e78565b602082019050919050565b60006020820190508181036000830152612edd81612ea1565b9050919050565b7f4c6f616e206f7665726475650000000000000000000000000000000000000000600082015250565b6000612f1a600c83612bb6565b9150612f2582612ee4565b602082019050919050565b60006020820190508181036000830152612f4981612f0d565b9050919050565b7f4f6e6c792074686520626f72726f7765722063616e20706179206261636b206160008201527f206c6f616e20616e64207265636c61696d2074686520756e6465726c79696e6760208201527f204e465400000000000000000000000000000000000000000000000000000000604082015250565b6000612fd2604483612bb6565b9150612fdd82612f50565b606082019050919050565b6000602082019050818103600083015261300181612fc5565b9050919050565b7f416d6f756e742073686f756c6420626520657175616c7320746f20746f74616c60008201527f5061796f6666416d6f756e740000000000000000000000000000000000000000602082015250565b6000613064602c83612bb6565b915061306f82613008565b604082019050919050565b6000602082019050818103600083015261309381613057565b9050919050565b7f4e465420776173206e6f74207375636365737366756c6c79207472616e73666560008201527f7272656400000000000000000000000000000000000000000000000000000000602082015250565b60006130f6602483612bb6565b91506131018261309a565b604082019050919050565b60006020820190508181036000830152613125816130e9565b9050919050565b6000819050919050565b600061315161314c61314784612afb565b61312c565b61283a565b9050919050565b61316181613136565b82525050565b600060e08201905061317c600083018a612984565b61318960208301896129db565b6131966040830188612984565b6131a36060830187612984565b6131b06080830186612984565b6131bd60a0830185613158565b6131ca60c08301846129db565b98975050505050505050565b7f4e6567617469766520696e7465726573742072617465206c6f616e732061726560008201527f206e6f7420616c6c6f7765642e00000000000000000000000000000000000000602082015250565b6000613232602d83612bb6565b915061323d826131d6565b604082019050919050565b6000602082019050818103600083015261326181613225565b9050919050565b7f4c6f616e206475726174696f6e2065786365656473206d6178696d756d206c6f60008201527f616e206475726174696f6e000000000000000000000000000000000000000000602082015250565b60006132c4602b83612bb6565b91506132cf82613268565b604082019050919050565b600060208201905081810360008301526132f3816132b7565b9050919050565b7f4c6f616e206475726174696f6e2063616e6e6f74206265207a65726f00000000600082015250565b6000613330601c83612bb6565b915061333b826132fa565b602082019050919050565b6000602082019050818103600083015261335f81613323565b9050919050565b7f706c6561736520656e74657220636f72726563742076616c7565000000000000600082015250565b600061339c601a83612bb6565b91506133a782613366565b602082019050919050565b600060208201905081810360008301526133cb8161338f565b9050919050565b7f4e465420636f6c6c61746572616c20636f6e7472616374206973206e6f74207760008201527f686974656c697374656420746f2062652075736564206279207468697320636f60208201527f6e74726163740000000000000000000000000000000000000000000000000000604082015250565b6000613454604683612bb6565b915061345f826133d2565b606082019050919050565b6000602082019050818103600083015261348381613447565b9050919050565b7f436f6e747261637420686173207265616368656420746865206d6178696d756d60008201527f206e756d626572206f6620616374697665206c6f616e7320616c6c6f7765642060208201527f62792061646d696e730000000000000000000000000000000000000000000000604082015250565b600061350c604983612bb6565b91506135178261348a565b606082019050919050565b6000602082019050818103600083015261353b816134ff565b9050919050565b600060608201905061355760008301866129db565b61356460208301856129db565b6135716040830184612984565b949350505050565b60006101208201905061358f600083018c612984565b61359c602083018b6129db565b6135a9604083018a612984565b6135b66060830189612984565b6135c36080830188612984565b6135d060a0830187612984565b6135dd60c0830186613158565b6135ea60e0830185613158565b6135f86101008301846129db565b9a9950505050505050505050565b7f6c6f616e206475726174696f6e2063616e6e6f7420657863656564207370616360008201527f6520616c6f7474656420696e2073747275637400000000000000000000000000602082015250565b6000613662603383612bb6565b915061366d82613606565b604082019050919050565b6000602082019050818103600083015261369181613655565b9050919050565b7f4f776e61626c653a206e6577206f776e657220697320746865207a65726f206160008201527f6464726573730000000000000000000000000000000000000000000000000000602082015250565b60006136f4602683612bb6565b91506136ff82613698565b604082019050919050565b60006020820190508181036000830152613723816136e7565b9050919050565b600081519050919050565b600081905092915050565b60005b8381101561375e578082015181840152602081019050613743565b8381111561376d576000848401525b50505050565b600061377e8261372a565b6137888185613735565b9350613798818560208601613740565b80840191505092915050565b60006137b08284613773565b915081905092915050565b7f4e487b7100000000000000000000000000000000000000000000000000000000600052601160045260246000fd5b60006137f58261283a565b91506138008361283a565b9250827fffffffffffffffffffffffffffffffffffffffffffffffffffffffffffffffff03821115613835576138346137bb565b5b828201905092915050565b600061384b8261283a565b91506138568361283a565b925082821015613869576138686137bb565b5b828203905092915050565b600061387f8261283a565b915061388a8361283a565b9250817fffffffffffffffffffffffffffffffffffffffffffffffffffffffffffffffff04831182151516156138c3576138c26137bb565b5b828202905092915050565b7f4e487b7100000000000000000000000000000000000000000000000000000000600052601260045260246000fd5b60006139088261283a565b91506139138361283a565b925082613923576139226138ce565b5b82820490509291505056fea2646970667358221220c22c82aaf3714f3a442d33245010e33b2443927c503aa4020b725405027aee3b64736f6c634300080b0033",
	"linkReferences": {},
	"deployedLinkReferences": {}
}